:100000000C942A000C9434000C9434000C943400AA
:100010000C9434000C9434000C9434000C94340090
:100020000C9434000C9434000C9434000C94340080
:100030000C9434000C9434000C9434000C94340070
:100040000C9434000C9434000C9434000C94340060
:100050000C94340011241FBECFE5D8E0DEBFCDBF25
:100060000E9465020C9495050C940000DF93CF93D9
:10007000CDB7DEB728970FB6F894DEBF0FBECDBF61
:100080008A836B834C8319828B81883008F0F4C09B
:100090008C81813009F072C08A81282F30E0388746
:1000A0002F838F8198858130910549F12F81388583
:1000B000223031052CF48F819885009761F05BC068
:1000C0002F8138852230310571F18F8198858330F9
:1000D0009105E9F150C0ABE3B0E0EBE3F0E08081E3
:1000E000482F8B81282F30E081E090E0022E02C063
:1000F000880F991F0A94E2F7842B8C93BFC0A8E362
:10010000B0E0E8E3F0E08081482F8B81282F30E0D9
:1001100081E090E0022E02C0880F991F0A94E2F756
:10012000842B8C93ABC0A5E3B0E0E5E3F0E08081E5
:10013000482F8B81282F30E081E090E0022E02C012
:10014000880F991F0A94E2F7842B8C9397C0A2E33F
:10015000B0E0E2E3F0E08081482F8B81282F30E08F
:1001600081E090E0022E02C0880F991F0A94E2F706
:10017000842B8C9383C081E0898380C08C81882309
:1001800009F077C08A81282F30E03E832D838D814E
:100190009E818130910559F12D813E8122303105BA
:1001A0002CF48D819E81009769F060C02D813E8185
:1001B0002230310589F18D819E818330910509F4CA
:1001C00040C054C0ABE3B0E0EBE3F0E08081482FE7
:1001D0008B81282F30E081E090E0022E02C0880F52
:1001E000991F0A94E2F7809584238C9347C0A8E373
:1001F000B0E0E8E3F0E08081482F8B81282F30E0E9
:1002000081E090E0022E02C0880F991F0A94E2F765
:10021000809584238C9332C0A5E3B0E0E5E3F0E061
:100220008081482F8B81282F30E081E090E0022EE2
:1002300002C0880F991F0A94E2F7809584238C935B
:100240001DC0A2E3B0E0E2E3F0E08081482F8B81A3
:10025000282F30E081E090E0022E02C0880F991F25
:100260000A94E2F7809584238C9308C081E0898307
:1002700005C081E0898302C081E089838981289655
:100280000FB6F894DEBF0FBECDBFCF91DF910895BA
:10029000DF93CF9300D000D00F92CDB7DEB78A8323
:1002A0006B8319828A81282F30E03D832C838C81D7
:1002B0009D8181309105D1F02C813D812230310525
:1002C0002CF48C819D81009761F01FC02C813D81B1
:1002D0002230310581F08C819D818330910581F040
:1002E00014C0EBE3F0E08B81808311C0E8E3F0E021
:1002F0008B8180830CC0E5E3F0E08B81808307C0B5
:10030000E2E3F0E08B81808302C081E08983898110
:100310000F900F900F900F900F90CF91DF91089555
:10032000DF93CF93CDB7DEB727970FB6F894DEBF34
:100330000FBECDBF8A836B835D834C8319828C8112
:100340009D81009709F478C08B81883008F074C0D3
:100350008A81282F30E03F832E834E815F81413098
:10036000510559F18E819F818230910534F42E819F
:100370003F812115310569F05CC04E815F814230BB
:10038000510579F18E819F818330910509F43DC03B
:1003900050C0E9E3F0E08081282F30E08B81882F86
:1003A00090E0A90102C0559547958A95E2F7CA01E8
:1003B0008170EC81FD81808341C0E6E3F0E08081C3
:1003C000282F30E08B81882F90E0A90102C055953D
:1003D00047958A95E2F7CA018170EC81FD8180839F
:1003E0002DC0E3E3F0E08081282F30E08B81882F5F
:1003F00090E0A90102C0559547958A95E2F7CA0198
:100400008170EC81FD81808319C0E0E3F0E08081A0
:10041000282F30E08B81882F90E0A90102C05595EC
:1004200047958A95E2F7CA018170EC81FD8180834E
:1004300005C081E0898302C081E089838981279694
:100440000FB6F894DEBF0FBECDBFCF91DF910895F8
:10045000DF93CF93CDB7DEB7AFE5B0E0EFE5F0E0E7
:10046000808180688C93CF91DF910895DF93CF9343
:10047000CDB7DEB7AFE5B0E0EFE5F0E080818F7794
:100480008C93CF91DF910895DF93CF93CDB7DEB7F3
:10049000EAE3F0E081E88083E7E3F0E01082E4E360
:1004A000F0E081E08083E1E3F0E01082EBE3F0E054
:1004B0001082E8E3F0E01082E5E3F0E01082E2E38E
:1004C000F0E01082CF91DF910895AF92BF92CF926A
:1004D000DF92EF92FF920F931F93DF93CF93CDB7ED
:1004E000DEB7E3970FB6F894DEBF0FBECDBF0E9414
:1004F00044020E94280280E00E94B0030E94F4039C
:1005000019821A821B821C821D821E821F821886FB
:1005100088EC0E94480482E00E94B80480E060E019
:1005200041E00E9436000E941E0488EC0E944804AC
:1005300084E00E94B80429813A814B815C816D81FD
:100540007E818F819885AA24A394A222BB24B32202
:10055000CC24C422DD24D522EE24E622FF24F72277
:10056000082F0070192F10708A2D8B298C298D2946
:100570008E298F29802B812B882331F480E067E03E
:1005800041E00E94360005C080E067E040E00E9444
:1005900036000E941E04898189879A819A878B81FF
:1005A0008B879C819C878D818D879E819E878F8183
:1005B0008F879885988B81E0898B1A8A1B8A1C8A81
:1005C0001D8A1E8A1F8A188E99858989980F998F8E
:1005D00091E099A3898D9985891708F019A28A85D8
:1005E0009A89890F8A8F81E08AA39A8D8A859817C4
:1005F00008F01AA299A18A8D980F9BA391E09CA361
:100600008BA19A8D891708F01CA28AA19CA1892B25
:100610008AA38BA18A8F9B858B89980F9B8F91E0F2
:100620009DA38B8D9B85891708F01DA28AA19B8DA8
:10063000890F8EA381E08FA39EA18B8D981708F060
:100640001FA29DA18FA1982B9DA39EA19B8F8C85FE
:100650009C89890F8C8F81E088A79C8D8C85981749
:1006600008F018A69DA18C8D980F99A791E09AA7E4
:1006700089A59C8D891708F01AA688A59AA5892BAB
:1006800088A789A58C8F9D858D89980F9D8F91E076
:100690009BA78D8D9D85891708F01BA688A59D8D2C
:1006A000890F8CA781E08DA79CA58D8D981708F0E8
:1006B0001DA69BA58DA5982B9BA79CA59D8F8E8580
:1006C0009E89890F8E8F81E08EA79E8D8E859817CB
:1006D00008F01EA69BA58E8D980F9FA791E098AB62
:1006E0008FA59E8D891708F018AA8EA598A9892B29
:1006F0008EA78FA58E8F9F858F89980F9F8F91E0F2
:1007000099AB8F8D9F85891708F019AA8EA59F8DAB
:10071000890F8AAB81E08BAB9AA98F8D981708F06F
:100720001BAA99A98BA9982B99AB9AA99F8F888905
:10073000988D890F88A389A998A1890F88A3898D8D
:1007400089839A8D9A838B8D8B839C8D9C838D8DD1
:100750008D839E8D9E838F8D8F8398A19887D8CE11
:10076000DF93CF930F92CDB7DEB78983E0E2F0E05D
:1007700082E08083E1E2F0E010828981882329F021
:10078000E2E2F0E08981880F8083A6E5B0E0E6E54B
:10079000F0E0808180648C93A6E5B0E0E6E5F0E0CF
:1007A000808184608C930F90CF91DF910895DF93C7
:1007B000CF930F92CDB7DEB78983E2E2F0E0898173
:1007C000880F8083A6E5B0E0E6E5F0E080818064F4
:1007D0008C93A6E5B0E0E6E5F0E0808184608C9340
:1007E0000F90CF91DF910895DF93CF930F92CDB704
:1007F000DEB71982A6E5B0E0E6E5F0E08081806230
:100800008C93A6E5B0E0E6E5F0E0808180688C930B
:10081000E6E5F0E080818823DCF7E1E2F0E080812A
:10082000882F90E0887F90708830910511F081E0EA
:10083000898389810F90CF91DF910895DF93CF93C2
:100840000F92CDB7DEB71982A6E5B0E0E6E5F0E09D
:10085000808180628C93A6E5B0E0E6E5F0E08081DF
:1008600080688C93E6E5F0E080818823DCF7E1E2A4
:10087000F0E08081882F90E0887F90708031910532
:1008800011F082E0898389810F90CF91DF910895E3
:10089000DF93CF9300D0CDB7DEB78A831982E3E22E
:1008A000F0E08A81880F8083A3E2B0E0E3E2F0E029
:1008B00080818E7F8C93A6E5B0E0E6E5F0E0808154
:1008C0008F7D8C93A6E5B0E0E6E5F0E0808180685E
:1008D0008C93E6E5F0E080818823DCF7E1E2F0E04C
:1008E0008081882F90E0887F90708831910511F089
:1008F00083E0898389810F900F90CF91DF910895D4
:10090000DF93CF9300D0CDB7DEB78A831982E3E2BD
:10091000F0E08A81880F8083A3E2B0E0E3E2F0E0B8
:10092000808181608C93A6E5B0E0E6E5F0E080810F
:100930008F7D8C93A6E5B0E0E6E5F0E080818068ED
:100940008C93E6E5F0E080818823DCF7E1E2F0E0DB
:100950008081882F90E0887F90708034910511F01D
:1009600084E0898389810F900F90CF91DF91089562
:10097000DF93CF9300D0CDB7DEB78A831982E3E24D
:10098000F0E08A818083A6E5B0E0E6E5F0E08081D2
:1009900080688C93E6E5F0E080818823DCF7E1E273
:1009A000F0E08081882F90E0887F907088329105F8
:1009B00011F085E0898389810F900F90CF91DF91AD
:1009C0000895DF93CF9300D00F92CDB7DEB79B830E
:1009D0008A831982A6E5B0E0E6E5F0E080818068D0
:1009E0008C93E6E5F0E080818823DCF7E1E2F0E03B
:1009F0008081882F90E0887F90708035910519F074
:100A000086E0898306C0E3E2F0E08081EA81FB8131
:100A1000808389810F900F900F90CF91DF9108957F
:100A2000DF93CF9300D0CDB7DEB78A831982E3E29C
:100A3000F0E08A818083A6E5B0E0E6E5F0E0808121
:100A400080688C93E6E5F0E080818823DCF7E1E2C2
:100A5000F0E08081882F90E0887F9070883B91053E
:100A600011F087E0898389810F900F90CF91DF91FA
:100A70000895DF93CF9300D00F92CDB7DEB79B835D
:100A80008A831982A6E5B0E0E6E5F0E0808180681F
:100A90008C93E6E5F0E080818823DCF7E1E2F0E08A
:100AA0008081882F90E0887F90708036910511F0CA
:100AB00088E08983A6E5B0E0E6E5F0E08081806823
:100AC0008C93E6E5F0E080818823DCF7E1E2F0E05A
:100AD0008081882F90E0887F90708038910519F090
:100AE00088E0898306C0E3E2F0E08081EA81FB814F
:100AF000808389810F900F900F90CF91DF9108959F
:100B0000DF93CF93CDB7DEB7A6E5B0E0E6E5F0E042
:100B1000808180618C93A6E5B0E0E6E5F0E080811D
:0E0B200080688C93CF91DF910895F894FFCFF9
:00000001FF
