:100000000C942A000C943C000C943C000C943C0092
:100010000C943C000C943C000C943C000C943C0070
:100020000C943C000C943C000C943C000C943C0060
:100030000C943C000C943C000C943C000C943C0050
:100040000C943C000C943C000C943C000C943C0040
:100050000C943C0011241FBECFE5D8E0DEBFCDBF1D
:1000600010E0A0E6B0E001C01D92A136B107E1F7B3
:100070000E946C020C946A040C940000DF93CF93EE
:10008000CDB7DEB728970FB6F894DEBF0FBECDBF51
:100090008A836B834C8319828B81883008F0F4C08B
:1000A0008C81813009F072C08A81282F30E0388736
:1000B0002F838F8198858130910549F12F81388573
:1000C000223031052CF48F819885009761F05BC058
:1000D0002F8138852230310571F18F8198858330E9
:1000E0009105E9F150C0ABE3B0E0EBE3F0E08081D3
:1000F000482F8B81282F30E081E090E0022E02C053
:10010000880F991F0A94E2F7842B8C93BFC0A8E351
:10011000B0E0E8E3F0E08081482F8B81282F30E0C9
:1001200081E090E0022E02C0880F991F0A94E2F746
:10013000842B8C93ABC0A5E3B0E0E5E3F0E08081D5
:10014000482F8B81282F30E081E090E0022E02C002
:10015000880F991F0A94E2F7842B8C9397C0A2E32F
:10016000B0E0E2E3F0E08081482F8B81282F30E07F
:1001700081E090E0022E02C0880F991F0A94E2F7F6
:10018000842B8C9383C081E0898380C08C818823F9
:1001900009F077C08A81282F30E03E832D838D813E
:1001A0009E818130910559F12D813E8122303105AA
:1001B0002CF48D819E81009769F060C02D813E8175
:1001C0002230310589F18D819E818330910509F4BA
:1001D00040C054C0ABE3B0E0EBE3F0E08081482FD7
:1001E0008B81282F30E081E090E0022E02C0880F42
:1001F000991F0A94E2F7809584238C9347C0A8E363
:10020000B0E0E8E3F0E08081482F8B81282F30E0D8
:1002100081E090E0022E02C0880F991F0A94E2F755
:10022000809584238C9332C0A5E3B0E0E5E3F0E051
:100230008081482F8B81282F30E081E090E0022ED2
:1002400002C0880F991F0A94E2F7809584238C934B
:100250001DC0A2E3B0E0E2E3F0E08081482F8B8193
:10026000282F30E081E090E0022E02C0880F991F15
:100270000A94E2F7809584238C9308C081E08983F7
:1002800005C081E0898302C081E089838981289645
:100290000FB6F894DEBF0FBECDBFCF91DF910895AA
:1002A000DF93CF9300D000D00F92CDB7DEB78A8313
:1002B0006B8319828A81282F30E03D832C838C81C7
:1002C0009D8181309105D1F02C813D812230310515
:1002D0002CF48C819D81009761F01FC02C813D81A1
:1002E0002230310581F08C819D818330910581F030
:1002F00014C0EBE3F0E08B81808311C0E8E3F0E011
:100300008B8180830CC0E5E3F0E08B81808307C0A4
:10031000E2E3F0E08B81808302C081E08983898100
:100320000F900F900F900F900F90CF91DF91089545
:10033000DF93CF93CDB7DEB727970FB6F894DEBF24
:100340000FBECDBF8A836B835D834C8319828C8102
:100350009D81009709F478C08B81883008F074C0C3
:100360008A81282F30E03F832E834E815F81413088
:10037000510559F18E819F818230910534F42E818F
:100380003F812115310569F05CC04E815F814230AB
:10039000510579F18E819F818330910509F43DC02B
:1003A00050C0E9E3F0E08081282F30E08B81882F76
:1003B00090E0A90102C0559547958A95E2F7CA01D8
:1003C0008170EC81FD81808341C0E6E3F0E08081B3
:1003D000282F30E08B81882F90E0A90102C055952D
:1003E00047958A95E2F7CA018170EC81FD8180838F
:1003F0002DC0E3E3F0E08081282F30E08B81882F4F
:1004000090E0A90102C0559547958A95E2F7CA0187
:100410008170EC81FD81808319C0E0E3F0E0808190
:10042000282F30E08B81882F90E0A90102C05595DC
:1004300047958A95E2F7CA018170EC81FD8180833E
:1004400005C081E0898302C081E089838981279684
:100450000FB6F894DEBF0FBECDBFCF91DF910895E8
:10046000DF93CF93CDB7DEB7AFE5B0E0EFE5F0E0D7
:10047000808180688C93CF91DF910895DF93CF9333
:10048000CDB7DEB7AFE5B0E0EFE5F0E080818F7784
:100490008C93CF91DF910895DF93CF93CDB7DEB7E3
:1004A000EAE3F0E01082E7E3F0E01082E4E3F0E05A
:1004B0001082E1E3F0E080E88083EBE3F0E010827B
:1004C000E8E3F0E01082E5E3F0E01082E2E3F0E040
:1004D0001082CF91DF910895DF93CF93CDB7DEB730
:1004E0000E944C020E94300284E60E94AC0280E628
:1004F00090E00E940E04809160008823C1F381E0A7
:1005000060E041E00E943E00F2CFDF93CF930F9274
:10051000CDB7DEB78983E0E2F0E082E08083E1E2FC
:10052000F0E010828981882329F0E2E2F0E08981FD
:10053000880F8083A6E5B0E0E6E5F0E08081806486
:100540008C93A6E5B0E0E6E5F0E0808184608C93D2
:100550000F90CF91DF910895DF93CF930F92CDB796
:10056000DEB78983E2E2F0E08981880F8083A6E527
:10057000B0E0E6E5F0E0808180648C93A6E5B0E031
:10058000E6E5F0E0808184608C930F90CF91DF915D
:100590000895DF93CF930F92CDB7DEB71982A6E50A
:1005A000B0E0E6E5F0E0808180628C93A6E5B0E003
:1005B000E6E5F0E0808180688C93E6E5F0E08081FC
:1005C0008823DCF7E1E2F0E08081882F90E0887FEB
:1005D00090708830910511F081E0898389810F90B6
:1005E000CF91DF910895DF93CF930F92CDB7DEB710
:1005F0001982A6E5B0E0E6E5F0E0808180628C93A8
:10060000A6E5B0E0E6E5F0E0808180688C93E6E561
:10061000F0E080818823DCF7E1E2F0E08081882F40
:1006200090E0887F90708031910511F082E089839D
:1006300089810F90CF91DF910895DF93CF9300D000
:10064000CDB7DEB78A831982E3E2F0E08A81880FB2
:100650008083A3E2B0E0E3E2F0E080818E7F8C93C0
:10066000A6E5B0E0E6E5F0E080818F7D8C93A6E51D
:10067000B0E0E6E5F0E0808180688C93E6E5F0E0AC
:1006800080818823DCF7E1E2F0E08081882F90E030
:10069000887F90708831910511F083E0898389818A
:1006A0000F900F90CF91DF910895DF93CF9300D0FB
:1006B000CDB7DEB78A831982E3E2F0E08A81880F42
:1006C0008083A3E2B0E0E3E2F0E0808181608C937C
:1006D000A6E5B0E0E6E5F0E080818F7D8C93A6E5AD
:1006E000B0E0E6E5F0E0808180688C93E6E5F0E03C
:1006F00080818823DCF7E1E2F0E08081882F90E0C0
:10070000887F90708034910511F084E0898389811D
:100710000F900F90CF91DF910895DF93CF9300D08A
:10072000CDB7DEB78A831982E3E2F0E08A81808365
:10073000A6E5B0E0E6E5F0E0808180688C93E6E530
:10074000F0E080818823DCF7E1E2F0E08081882F0F
:1007500090E0887F90708832910511F085E0898360
:1007600089810F900F90CF91DF910895DF93CF9300
:1007700000D00F92CDB7DEB79B838A831982A6E59E
:10078000B0E0E6E5F0E0808180688C93E6E5F0E09B
:1007900080818823DCF7E1E2F0E08081882F90E01F
:1007A000887F90708035910519F086E0898306C0B6
:1007B000E3E2F0E08081EA81FB81808389810F9010
:1007C0000F900F90CF91DF910895DF93CF9300D0DA
:1007D000CDB7DEB78A831982E3E2F0E08A818083B5
:1007E000A6E5B0E0E6E5F0E0808180688C93E6E580
:1007F000F0E080818823DCF7E1E2F0E08081882F5F
:1008000090E0887F9070883B910511F087E08983A4
:1008100089810F900F90CF91DF910895DF93CF934F
:1008200000D00F92CDB7DEB79B838A831982A6E5ED
:10083000B0E0E6E5F0E0808180688C93E6E5F0E0EA
:1008400080818823DCF7E1E2F0E08081882F90E06E
:10085000887F90708036910511F088E08983A6E545
:10086000B0E0E6E5F0E0808180688C93E6E5F0E0BA
:1008700080818823DCF7E1E2F0E08081882F90E03E
:10088000887F90708038910519F088E0898306C0D0
:10089000E3E2F0E08081EA81FB81808389810F902F
:1008A0000F900F90CF91DF910895DF93CF93CDB745
:1008B000DEB7A6E5B0E0E6E5F0E0808180618C93EC
:1008C000A6E5B0E0E6E5F0E0808180688C93CF910A
:0808D000DF910895F894FFCFB9
:00000001FF
