:100000000C942A000C943C000C943C000C943C0092
:100010000C943C000C943C000C943C000C943C0070
:100020000C943C000C943C000C943C000C943C0060
:100030000C943C000C943C000C943C000C943C0050
:100040000C943C000C943C000C943C000C943C0040
:100050000C943C0011241FBECFE5D8E0DEBFCDBF1D
:1000600010E0A0E6B0E001C01D92A936B107E1F7AB
:100070000E946D020C94A1050C940000DF93CF93B5
:10008000CDB7DEB728970FB6F894DEBF0FBECDBF51
:100090008A836B834C8319828B81883008F0F4C08B
:1000A0008C81813009F072C08A81282F30E0388736
:1000B0002F838F8198858130910549F12F81388573
:1000C000223031052CF48F819885009761F05BC058
:1000D0002F8138852230310571F18F8198858330E9
:1000E0009105E9F150C0ABE3B0E0EBE3F0E08081D3
:1000F000482F8B81282F30E081E090E0022E02C053
:10010000880F991F0A94E2F7842B8C93BFC0A8E351
:10011000B0E0E8E3F0E08081482F8B81282F30E0C9
:1001200081E090E0022E02C0880F991F0A94E2F746
:10013000842B8C93ABC0A5E3B0E0E5E3F0E08081D5
:10014000482F8B81282F30E081E090E0022E02C002
:10015000880F991F0A94E2F7842B8C9397C0A2E32F
:10016000B0E0E2E3F0E08081482F8B81282F30E07F
:1001700081E090E0022E02C0880F991F0A94E2F7F6
:10018000842B8C9383C081E0898380C08C818823F9
:1001900009F077C08A81282F30E03E832D838D813E
:1001A0009E818130910559F12D813E8122303105AA
:1001B0002CF48D819E81009769F060C02D813E8175
:1001C0002230310589F18D819E818330910509F4BA
:1001D00040C054C0ABE3B0E0EBE3F0E08081482FD7
:1001E0008B81282F30E081E090E0022E02C0880F42
:1001F000991F0A94E2F7809584238C9347C0A8E363
:10020000B0E0E8E3F0E08081482F8B81282F30E0D8
:1002100081E090E0022E02C0880F991F0A94E2F755
:10022000809584238C9332C0A5E3B0E0E5E3F0E051
:100230008081482F8B81282F30E081E090E0022ED2
:1002400002C0880F991F0A94E2F7809584238C934B
:100250001DC0A2E3B0E0E2E3F0E08081482F8B8193
:10026000282F30E081E090E0022E02C0880F991F15
:100270000A94E2F7809584238C9308C081E08983F7
:1002800005C081E0898302C081E089838981289645
:100290000FB6F894DEBF0FBECDBFCF91DF910895AA
:1002A000DF93CF9300D000D00F92CDB7DEB78A8313
:1002B0006B8319828A81282F30E03D832C838C81C7
:1002C0009D8181309105D1F02C813D812230310515
:1002D0002CF48C819D81009761F01FC02C813D81A1
:1002E0002230310581F08C819D818330910581F030
:1002F00014C0EBE3F0E08B81808311C0E8E3F0E011
:100300008B8180830CC0E5E3F0E08B81808307C0A4
:10031000E2E3F0E08B81808302C081E08983898100
:100320000F900F900F900F900F90CF91DF91089545
:10033000DF93CF93CDB7DEB727970FB6F894DEBF24
:100340000FBECDBF8A836B835D834C8319828C8102
:100350009D81009709F478C08B81883008F074C0C3
:100360008A81282F30E03F832E834E815F81413088
:10037000510559F18E819F818230910534F42E818F
:100380003F812115310569F05CC04E815F814230AB
:10039000510579F18E819F818330910509F43DC02B
:1003A00050C0E9E3F0E08081282F30E08B81882F76
:1003B00090E0A90102C0559547958A95E2F7CA01D8
:1003C0008170EC81FD81808341C0E6E3F0E08081B3
:1003D000282F30E08B81882F90E0A90102C055952D
:1003E00047958A95E2F7CA018170EC81FD8180838F
:1003F0002DC0E3E3F0E08081282F30E08B81882F4F
:1004000090E0A90102C0559547958A95E2F7CA0187
:100410008170EC81FD81808319C0E0E3F0E0808190
:10042000282F30E08B81882F90E0A90102C05595DC
:1004300047958A95E2F7CA018170EC81FD8180833E
:1004400005C081E0898302C081E089838981279684
:100450000FB6F894DEBF0FBECDBFCF91DF910895E8
:10046000DF93CF93CDB7DEB7AFE5B0E0EFE5F0E0D7
:10047000808180688C93CF91DF910895DF93CF9333
:10048000CDB7DEB7AFE5B0E0EFE5F0E080818F7784
:100490008C93CF91DF910895DF93CF93CDB7DEB7E3
:1004A000EAE3F0E01082E7E3F0E01082E4E3F0E05A
:1004B0001082E1E3F0E081E08083EBE3F0E0108282
:1004C000E8E3F0E080E18083E5E3F0E01082E2E33E
:1004D000F0E01082CF91DF910895AF92BF92CF925A
:1004E000DF92EF92FF920F931F93DF93CF93CDB7DD
:1004F000DEB7AB970FB6F894DEBF0FBECDBF0E943C
:100500004C020E94300288EC0E94E30380E690E0F7
:100510000E94450520916100309162004091630086
:100520005091640060916500709166008091670051
:1005300090916800A22EB32EC42ED52EE62EF72E53
:10054000082F192F2A2D21703B2D30704C2D407013
:100550005D2D50706E2D60707F2D7070802F8070BB
:10056000912F9070E22FE32BE42BE52BE62BE72B6A
:10057000E82BE92BEE2331F483E060E041E00E94B8
:100580003E0005C083E060E040E00E943E008091B4
:1005900061008983909162009A83809163008B83CC
:1005A000909164009C83809165008D83909166009A
:1005B0009E83809167008F8390916800988781E087
:1005C00089871A861B861C861D861E861F86188AAA
:1005D00099818985980F998B91E0998F8989998163
:1005E000891708F0198E8A819A85890F8A8B81E094
:1005F0008A8F9A898A81981708F01A8E998D8A892C
:10060000980F9B8F91E09C8F8B8D9A89891708F0AA
:100610001C8E8A8D9C8D892B8A8F8B8D8A8B9B81DA
:100620008B85980F9B8B91E09D8F8B899B81891780
:1006300008F01D8E8A8D9B89890F8E8F81E08F8FA8
:100640009E8D8B89981708F01F8E9D8D8F8D982B0E
:100650009D8F9E8D9B8B8C819C85890F8C8B81E0DF
:1006600088A39C898C81981708F018A29D8D8C898D
:10067000980F99A391E09AA389A19C89891708F002
:100680001AA288A19AA1892B88A389A18C8B9D810C
:100690008D85980F9D8B91E09BA38D899D818917F6
:1006A00008F01BA288A19D89890F8CA381E08DA3EE
:1006B0009CA18D89981708F01DA29BA18DA1982B54
:1006C0009BA39CA19D8B8E819E85890F8E8B81E043
:1006D0008EA39E898E81981708F01EA29BA18E89F9
:1006E000980F9FA391E098A78FA19E89891708F082
:1006F00018A68EA198A5892B8EA38FA18E8B9F8182
:100700008F85980F9F8B91E099A78F899F8189177B
:1007100008F019A68EA19F89890F8AA781E08BA76F
:100720009AA58F89981708F01BA699A58BA5982BD9
:1007300099A79AA59F8B88859889890F888F89A505
:10074000988D890F888F29893A894B895C896D89B1
:100750007E898F89988D2093610030936200409349
:10076000630050936400609365007093660080930B
:10077000670090936800CACEDF93CF930F92CDB7F6
:10078000DEB78983E0E2F0E082E08083E1E2F0E03E
:1007900010828981882329F0E2E2F0E08981880FC4
:1007A0008083A6E5B0E0E6E5F0E0808180648C938C
:1007B000A6E5B0E0E6E5F0E0808184608C930F90E0
:1007C000CF91DF910895DF93CF930F92CDB7DEB72E
:1007D0008983E2E2F0E08981880F8083A6E5B0E0BA
:1007E000E6E5F0E0808180648C93A6E5B0E0E6E584
:1007F000F0E0808184608C930F90CF91DF91089519
:10080000DF93CF930F92CDB7DEB71982A6E5B0E0A4
:10081000E6E5F0E0808180628C93A6E5B0E0E6E555
:10082000F0E0808180688C93E6E5F0E080818823A9
:10083000DCF7E1E2F0E08081882F90E0887F907023
:100840008830910511F081E0898389810F90CF91E3
:10085000DF910895DF93CF930F92CDB7DEB7198262
:10086000A6E5B0E0E6E5F0E0808180628C93A6E545
:10087000B0E0E6E5F0E0808180688C93E6E5F0E0AA
:1008800080818823DCF7E1E2F0E08081882F90E02E
:10089000887F90708031910511F082E08983898191
:1008A0000F90CF91DF910895DF93CF9300D0CDB714
:1008B000DEB78A831982E3E2F0E08A81880F8083C1
:1008C000A3E2B0E0E3E2F0E080818E7F8C93A6E5C6
:1008D000B0E0E6E5F0E080818F7D8C93A6E5B0E0A6
:1008E000E6E5F0E0808180688C93E6E5F0E08081C9
:1008F0008823DCF7E1E2F0E08081882F90E0887FB8
:1009000090708831910511F083E0898389810F907F
:100910000F90CF91DF910895DF93CF9300D0CDB7A3
:10092000DEB78A831982E3E2F0E08A81880F808350
:10093000A3E2B0E0E3E2F0E0808181608C93A6E581
:10094000B0E0E6E5F0E080818F7D8C93A6E5B0E035
:10095000E6E5F0E0808180688C93E6E5F0E0808158
:100960008823DCF7E1E2F0E08081882F90E0887F47
:1009700090708034910511F084E0898389810F9013
:100980000F90CF91DF910895DF93CF9300D0CDB733
:10099000DEB78A831982E3E2F0E08A818083A6E5EC
:1009A000B0E0E6E5F0E0808180688C93E6E5F0E079
:1009B00080818823DCF7E1E2F0E08081882F90E0FD
:1009C000887F90708832910511F085E08983898154
:1009D0000F900F90CF91DF910895DF93CF9300D0C8
:1009E0000F92CDB7DEB79B838A831982A6E5B0E06C
:1009F000E6E5F0E0808180688C93E6E5F0E08081B8
:100A00008823DCF7E1E2F0E08081882F90E0887FA6
:100A100090708035910519F086E0898306C0E3E285
:100A2000F0E08081EA81FB81808389810F900F90C3
:100A30000F90CF91DF910895DF93CF9300D0CDB782
:100A4000DEB78A831982E3E2F0E08A818083A6E53B
:100A5000B0E0E6E5F0E0808180688C93E6E5F0E0C8
:100A600080818823DCF7E1E2F0E08081882F90E04C
:100A7000887F9070883B910511F087E08983898198
:100A80000F900F90CF91DF910895DF93CF9300D017
:100A90000F92CDB7DEB79B838A831982A6E5B0E0BB
:100AA000E6E5F0E0808180688C93E6E5F0E0808107
:100AB0008823DCF7E1E2F0E08081882F90E0887FF6
:100AC00090708036910511F088E08983A6E5B0E04A
:100AD000E6E5F0E0808180688C93E6E5F0E08081D7
:100AE0008823DCF7E1E2F0E08081882F90E0887FC6
:100AF00090708038910519F088E0898306C0E3E2A0
:100B0000F0E08081EA81FB81808389810F900F90E2
:100B10000F90CF91DF910895DF93CF93CDB7DEB7DC
:100B2000A6E5B0E0E6E5F0E0808180618C93A6E583
:100B3000B0E0E6E5F0E0808180688C93CF91DF91B2
:060B40000895F894FFCFB8
:00000001FF
