:100000000C942A000C9447000C9447000C94470071
:100010000C9447000C9447000C9447000C94470044
:100020000C9447000C9447000C9447000C94470034
:100030000C941A0C0C9447000C9447000C94470045
:100040000C9447000C9447000C9447000C94470014
:100050000C94470011241FBECFE5D8E0DEBFCDBF12
:1000600010E0A8E6B0E001C01D92A137B107E1F7AA
:1000700010E0A0E6B0E0E6E6F9E102C005900D92DE
:10008000A836B107D9F70E94D2070C94B10C0C9492
:100090000000EF92FF920F931F937B018C0120E0F1
:1000A00030E040E05FE40E94490388238CF0C801FF
:1000B000B70120E030E040E05FE40E94C1010E940F
:1000C000A9039B01AC01205030404040504806C07D
:1000D000C801B7010E94A9039B01AC01B901CA0183
:1000E0001F910F91FF90EF900895A0E0B0E0EBE733
:1000F000F0E00C947A0CDC012B01FA019C91923017
:1001000008F439C1EB018881823008F433C194309E
:1001100069F4843009F02FC111969C91119789815F
:10012000981709F428C1A0E6B0E025C1843009F48D
:1001300021C18230A9F4923009F01DC19A01AD01AC
:1001400088E0EA010990AE01E90109929E0181501F
:10015000C1F7E201898111969C918923818308C1AD
:10016000923009F407C112962D903C901397EB0141
:100170008A819B811496AD90BD90CD90DC901797AD
:10018000EC80FD800E811F819101281B390BB90184
:1001900037FF04C066277727621B730B6032710537
:1001A0000CF061C0121613066CF537014801062EDB
:1001B00004C096948794779467940A94D2F721E0C8
:1001C00030E040E050E004C0220F331F441F551FB1
:1001D0006A95D2F721503040404050402E213F21B7
:1001E00040235123211531054105510521F021E01E
:1001F00030E040E050E079018A01E628F72808293C
:1002000019293CC0232BD1F1260E371E350146019A
:10021000062E04C096948794779467940A94D2F734
:1002200021E030E040E050E004C0220F331F441FC3
:10023000551F6A95D2F721503040404050402A2146
:100240003B214C215D21211531054105510521F04E
:1002500021E030E040E050E059016A01A628B728CB
:10026000C828D9280BC0821593052CF01C01AA249C
:10027000BB24650103C0EE24FF24870111969C91E5
:10028000D20111968C91981709F445C0992339F041
:10029000A80197012A193B094C095D0906C0A6016E
:1002A00095012E193F09400B510B57FD08C01182D3
:1002B0003382228224833583468357831DC081E0A5
:1002C00081833382228288279927DC01821B930B4A
:1002D000A40BB50B84839583A683B7830DC0220F2F
:1002E000331F441F551F24833583468357838281E0
:1002F000938101979383828324813581468157813D
:10030000DA01C9010197A109B1098F5F9F4FAF4F72
:10031000BF4328F30BC0918333822282EA0CFB1C7B
:100320000C1D1D1DE482F5820683178383E0808304
:10033000248135814681578157FF1AC0C901AA27F8
:1003400097FDA095BA2F81709070A070B0705695EF
:10035000479537952795822B932BA42BB52B848318
:100360009583A683B7838281938101969383828349
:10037000DF0101C0D201CD01CDB7DEB7E2E10C94BF
:10038000960CA0E2B0E0E7ECF1E00C94860C6983F7
:100390007A838B839C832D833E834F835887E9E048
:1003A000EE2EF12CEC0EFD1ECE010196B7010E943F
:1003B000D2048E010F5E1F4FCE010596B8010E9438
:1003C000D2048A8991E089278A8BC701B801AE01DE
:1003D000475E5F4F0E9475000E94FD03A096E6E015
:1003E0000C94A20CA0E2B0E0E8EFF1E00C94860CD3
:1003F00069837A838B839C832D833E834F835887C5
:10040000F9E0EF2EF12CEC0EFD1ECE010196B701A6
:100410000E94D2048E010F5E1F4FCE010596B801D7
:100420000E94D204C701B801AE01475E5F4F0E942F
:1004300075000E94FD03A096E6E00C94A20CA0E2D9
:10044000B0E0E5E2F2E00C947A0C69837A838B8366
:100450009C832D833E834F835887CE010196BE0136
:10046000675F7F4F0E94D204CE010596BE016F5E8A
:100470007F4F0E94D2049985923088F0898982301A
:10048000C8F0943019F4823051F404C0843029F457
:10049000923081F480E690E0C6C0923049F420E0CA
:1004A0009A858A89981321E02A87CE010996BBC0D4
:1004B000823049F420E09A858A89981321E02A8BBA
:1004C000CE014196B0C02D843E844F8458886D88FB
:1004D0007E888F88988CEE24FF248701AA24BB2471
:1004E000650140E050E060E070E0E0E0F0E0C10174
:1004F00081709070892BE9F0E60CF71C081D191D1E
:100500009A01AB012A0D3B1D4C1D5D1D80E090E062
:10051000A0E0B0E0E614F7040805190520F481E036
:1005200090E0A0E0B0E0BA01A901480F591F6A1F8E
:100530007B1FAA0CBB1CCC1CDD1C97FE08C081E0F5
:1005400090E0A0E0B0E0A82AB92ACA2ADB2A3196B6
:10055000E032F10549F0660C771C881C991C569412
:10056000479437942794C3CFFA85EA892B893C892D
:100570008B859C85280F391F2E5F3F4F17C0CA01FE
:1005800081709070892B61F016950795F794E79428
:1005900080E090E0A0E0B0E8E82AF92A0A2B1B2BC3
:1005A00076956795579547952F5F3F4F77FDE7CF36
:1005B0000CC0440F551F661F771F17FD4160EE0CDE
:1005C000FF1C001F111F21503040403090E05907A0
:1005D00090E0690790E4790760F32B8F3C8FDB0193
:1005E000CA018F779070A070B07080349105A1051A
:1005F000B10561F447FD0AC0E114F10401051105DC
:1006000029F0405C5F4F6F4F7F4F40781A8EFE1786
:1006100011F081E08A8F4D8F5E8F6F8F78A383E01A
:10062000898FCE0149960E94FD03A096E2E10C94C9
:10063000960CA8E1B0E0EFE1F3E00C94860C69833E
:100640007A838B839C832D833E834F83588789E0F5
:10065000E82EF12CEC0EFD1ECE010196B7010E9492
:10066000D2048E010F5E1F4FCE010596B8010E9485
:10067000D2048985823040F08989823028F0C70110
:10068000B8010E944A0501C08FEF6896E6E00C941D
:10069000A20CA8E1B0E0EFE4F3E00C94860C6983CF
:1006A0007A838B839C832D833E834F83588789E095
:1006B000E82EF12CEC0EFD1ECE010196B7010E9432
:1006C000D2048E010F5E1F4FCE010596B8010E9425
:1006D000D2048985823040F08989823028F0C701B0
:1006E000B8010E944A0501C08FEF6896E6E00C94BD
:1006F000A20CA8E1B0E0EFE7F3E00C94860C69836C
:100700007A838B839C832D833E834F83588789E034
:10071000E82EF12CEC0EFD1ECE010196B7010E94D1
:10072000D2048E010F5E1F4FCE010596B8010E94C4
:10073000D2048985823040F08989823028F0C7014F
:10074000B8010E944A0501C081E06896E6E00C9479
:10075000A20CACE0B0E0EFEAF3E00C948A0C698301
:100760007A838B839C83CE010196BE016B5F7F4FA2
:100770000E94D2048D81823061F1823050F1843048
:1007800021F48E81882351F12EC02F81388537FDC9
:1007900020C06E812F3131051CF06623F9F023C093
:1007A0008EE190E0821B930B29853A854B855C8511
:1007B00004C056954795379527958A95D2F76623B5
:1007C000B1F050954095309521953F4F4F4F5F4F79
:1007D0000EC020E030E040E050E009C02FEF3FEFD6
:1007E0004FEF5FE704C020E030E040E050E8B9019F
:1007F000CA012C96E2E00C94A60CDF92EF92FF92D5
:100800000F931F93FC01E480F58006811781D1804E
:100810008081823048F480E090E0A0E1B0E0E82AF6
:10082000F92A0A2B1B2BA5C0843009F49FC0823003
:1008300021F4EE24FF24870105C0E114F104010531
:10084000110519F4E0E0F0E096C0628173819FEF3A
:10085000623879070CF05BC022E83FEF261B370BAC
:100860002A3131052CF020E030E040E050E02AC091
:10087000B801A701022E04C0769567955795479554
:100880000A94D2F781E090E0A0E0B0E004C0880FC5
:10089000991FAA1FBB1F2A95D2F70197A109B10979
:1008A0008E219F21A023B1230097A105B10521F03E
:1008B00081E090E0A0E0B0E09A01AB01282B392B59
:1008C0004A2B5B2BDA01C9018F779070A070B07052
:1008D00080349105A105B10539F427FF09C0205CDA
:1008E0003F4F4F4F5F4F04C0215C3F4F4F4F5F4F13
:1008F000E0E0F0E02030A0E03A07A0E04A07A0E402
:100900005A0710F0E1E0F0E079018A0127C0603871
:10091000710564F5FB01E158FF4FD801C7018F77DE
:100920009070A070B07080349105A105B10539F4C4
:10093000E7FE0DC080E490E0A0E0B0E004C08FE3EB
:1009400090E0A0E0B0E0E80EF91E0A1F1B1F17FFA1
:1009500005C016950795F794E794319687E01695AC
:100960000795F794E7948A95D1F705C0EE24FF2404
:100970008701EFEFF0E06E2F679566276795902F60
:100980009F77D794DD24D7948E2F8695492F462BB9
:10099000582F5D29B701CA011F910F91FF90EF9069
:1009A000DF900895FC01DB01408151812281622F9B
:1009B0006F7770E0221F2227221F9381892F880FD3
:1009C000822B282F30E0991F9927991F11969C930D
:1009D000119721153105A9F54115510561057105DD
:1009E00011F482E037C082E89FEF13969C938E93B8
:1009F00012979A01AB0167E0220F331F441F551F66
:100A00006A95D1F783E08C930DC0220F331F441FEA
:100A1000551F12968D919C911397019713969C9355
:100A20008E931297203080E0380780E0480780E4FA
:100A3000580758F314962D933D934D935C93179755
:100A400008952F3F310579F4411551056105710570
:100A500019F484E08C93089564FF03C081E08C93C3
:100A600012C01C9210C02F57304013963C932E9307
:100A7000129783E08C9387E0440F551F661F771F02
:100A80008A95D1F7706414964D935D936D937C9322
:100A9000179708951F93DC01FB019C91923008F495
:100AA00047C08081823008F443C0943051F41196DD
:100AB0001C91843099F58181682F70E0611B710968
:100AC0003FC0843021F0923031F48230B9F181811D
:100AD000882389F12DC011961C9111978230F1F075
:100AE00081811817D9F412962D913C911397828128
:100AF00093818217930794F028173907BCF0149656
:100B00008D919D910D90BC91A02D248135814681C0
:100B10005781281739074A075B0718F4112341F05A
:100B20000AC082179307A407B50740F4112319F0F0
:100B300061E070E005C06FEF7FEF02C060E070E041
:100B4000CB011F910895DF93CF93CDB7DEB72897E0
:100B50000FB6F894DEBF0FBECDBF8A836B834C8384
:100B600019828B81883008F0F4C08C81813009F0C3
:100B700072C08A81282F30E038872F838F81988533
:100B80008130910549F12F813885223031052CF4CF
:100B90008F819885009761F05BC02F813885223066
:100BA000310571F18F81988583309105E9F150C04D
:100BB000ABE3B0E0EBE3F0E08081482F8B81282F9E
:100BC00030E081E090E0022E02C0880F991F0A9465
:100BD000E2F7842B8C93BFC0A8E3B0E0E8E3F0E039
:100BE0008081482F8B81282F30E081E090E0022E19
:100BF00002C0880F991F0A94E2F7842B8C93ABC034
:100C0000A5E3B0E0E5E3F0E08081482F8B81282F59
:100C100030E081E090E0022E02C0880F991F0A9414
:100C2000E2F7842B8C9397C0A2E3B0E0E2E3F0E01C
:100C30008081482F8B81282F30E081E090E0022EC8
:100C400002C0880F991F0A94E2F7842B8C9383C00B
:100C500081E0898380C08C81882309F077C08A81F4
:100C6000282F30E03E832D838D819E818130910538
:100C700059F12D813E81223031052CF48D819E81E8
:100C8000009769F060C02D813E812230310589F1E5
:100C90008D819E818330910509F440C054C0ABE33F
:100CA000B0E0EBE3F0E08081482F8B81282F30E02B
:100CB00081E090E0022E02C0880F991F0A94E2F7AB
:100CC000809584238C9347C0A8E3B0E0E8E3F0E08C
:100CD0008081482F8B81282F30E081E090E0022E28
:100CE00002C0880F991F0A94E2F7809584238C93A1
:100CF00032C0A5E3B0E0E5E3F0E08081482F8B81CE
:100D0000282F30E081E090E0022E02C0880F991F6A
:100D10000A94E2F7809584238C931DC0A2E3B0E08F
:100D2000E2E3F0E08081482F8B81282F30E081E0E2
:100D300090E0022E02C0880F991F0A94E2F7809576
:100D400084238C9308C081E0898305C081E0898376
:100D500002C081E08983898128960FB6F894DEBFAE
:100D60000FBECDBFCF91DF910895DF93CF9300D019
:100D700000D00F92CDB7DEB78A836B8319828A8148
:100D8000282F30E03D832C838C819D81813091051B
:100D9000D1F02C813D81223031052CF48C819D8154
:100DA000009761F01FC02C813D812230310581F018
:100DB0008C819D818330910581F014C0EBE3F0E0DC
:100DC0008B81808311C0E8E3F0E08B8180830CC0CD
:100DD000E5E3F0E08B81808307C0E2E3F0E08B8104
:100DE000808302C081E0898389810F900F900F90EA
:100DF0000F900F90CF91DF910895DF93CF93CDB7F0
:100E0000DEB727970FB6F894DEBF0FBECDBF8A833B
:100E10006B835D834C8319828C819D81009709F4DB
:100E200078C08B81883008F074C08A81282F30E028
:100E30003F832E834E815F814130510559F18E8170
:100E40009F818230910534F42E813F812115310537
:100E500069F05CC04E815F814230510579F18E812D
:100E60009F818330910509F43DC050C0E9E3F0E073
:100E70008081282F30E08B81882F90E0A90102C06B
:100E8000559547958A95E2F7CA018170EC81FD81FD
:100E9000808341C0E6E3F0E08081282F30E08B8141
:100EA000882F90E0A90102C0559547958A95E2F7F1
:100EB000CA018170EC81FD8180832DC0E3E3F0E005
:100EC0008081282F30E08B81882F90E0A90102C01B
:100ED000559547958A95E2F7CA018170EC81FD81AD
:100EE000808319C0E0E3F0E08081282F30E08B811F
:100EF000882F90E0A90102C0559547958A95E2F7A1
:100F0000CA018170EC81FD81808305C081E0898305
:100F100002C081E08983898127960FB6F894DEBFED
:100F20000FBECDBFCF91DF910895DF93CF93CDB7A3
:100F3000DEB7AFE5B0E0EFE5F0E0808180688C934C
:100F4000CF91DF910895DF93CF93CDB7DEB7AFE5B3
:100F5000B0E0EFE5F0E080818F778C93CF91DF9167
:100F60000895DF93CF93CDB7DEB7EAE3F0E01082C8
:100F7000E7E3F0E081EA8083E4E3F0E01082E1E37C
:100F8000F0E01082EBE3F0E01082E8E3F0E080E1D3
:100F90008083E5E3F0E01082E2E3F0E01082CF919D
:100FA000DF910895DF93CF93CDB7DEB76D970FB67E
:100FB000F894DEBF0FBECDBF0E94B1070E94D908D2
:100FC0001D8E81E060E040E00E94A3059E01235E4B
:100FD0003F4F81E0B9010E940B0B80E090E0AAE74F
:100FE000B4E4898F9A8FAB8FBC8F698D7A8D8B8D8E
:100FF0009C8D20E030E04AEF54E40E941F02DC01A7
:10100000CB018D8B9E8BAF8BB88F6D897E898F893D
:10101000988D20E030E040E85FE30E947903882368
:101020002CF481E090E09C8B8B8B3FC06D897E8996
:101030008F89988D20E03FEF4FE757E40E94190316
:1010400018164CF5698D7A8D8B8D9C8D20E030E0E3
:1010500040E251E40E941F02DC01CB01BC01CD0142
:101060000E944900DC01CB019C8B8B8B0FC088EC6C
:1010700090E09A8B898B89899A890197F1F79A8BED
:10108000898B8B899C8901979C8B8B8B8B899C8905
:10109000009769F714C06D897E898F89988D0E94A9
:1010A0004900DC01CB019C8B8B8B8B899C89988BB5
:1010B0008F878F8598890197F1F7988B8F879E018D
:1010C000235E3F4F82E0B9010E940B0B80E090E06D
:1010D000AAE7B4E48B879C87AD87BE876B857C8548
:1010E0008D859E8520E030E04AEF54E40E941F0287
:1010F000DC01CB018F839887A987BA876F817885B8
:1011000089859A8520E030E040E85FE30E9479031A
:1011100088232CF481E090E09E838D833FC06F8113
:10112000788589859A8520E03FEF4FE757E40E9454
:10113000190318164CF56B857C858D859E8520E0FE
:1011400030E040E251E40E941F02DC01CB01BC010F
:10115000CD010E944900DC01CB019E838D830FC02D
:1011600088EC90E09C838B838B819C810197F1F7C5
:101170009C838B838D819E8101979E838D838D813E
:101180009E81009769F71DCF6F81788589859A8543
:101190000E944900DC01CB019E838D838D819E815D
:1011A0009A83898389819A810197F1F79A83898348
:1011B00008CFDF93CF93CDB7DEB7ADE2B0E0EDE27D
:1011C000F0E080818F7D8C93ADE2B0E0EDE2F0E065
:1011D000808180618C93ADE2B0E0EDE2F0E080814F
:1011E000877F8C93ADE2B0E0EDE2F0E080818B7F11
:1011F0008C93ADE2B0E0EDE2F0E0808181608C9311
:10120000ADE2B0E0EDE2F0E080818D7F8C93AEE264
:10121000B0E0EEE2F0E080818E7F8C93ADE2B0E052
:10122000EDE2F0E080818F778C93ADE2B0E0EDE20B
:10123000F0E0808180648C93CF91DF910895DF93FB
:10124000CF93CDB7DEB761970FB6F894DEBF0FBE70
:10125000CDBF9B838A8385E089838A819B810097A8
:1012600009F4CDC1EA81FB818581882309F4C7C1D6
:10127000EA81FB818481882309F4C1C1EA81FB8171
:101280008681882309F4BBC1EA81FB81828188239E
:1012900009F4B5C1EA81FB818081882309F4AFC1DB
:1012A000EA81FB818381882309F4A9C1EA81FB815A
:1012B0008181882309F4A3C1EA81FB818581282FDC
:1012C00030E0398B288B88899989009731F02889FB
:1012D00039892130310549F010C0ADE2B0E0EDE2CE
:1012E000F0E080818B7F8C930AC0ADE2B0E0EDE24C
:1012F000F0E0808184608C9302C081E08983EA8180
:10130000FB818481282F30E03F872E878E859F8543
:10131000009731F02E853F852130310549F010C00E
:10132000ADE2B0E0EDE2F0E08081877F8C930AC00F
:10133000ADE2B0E0EDE2F0E0808188608C9302C025
:1013400081E08983EA81FB818681282F30E03D8717
:101350002C878C859D858330910509F46AC02C8586
:101360003D852430310584F48C859D85813091053F
:10137000A1F12C853D85223031050CF044C08C85CF
:101380009D850097A1F0ADC02C853D8525303105A8
:1013900009F47BC08C859D85853091050CF45FC078
:1013A0002C853D852630310509F485C09AC0ADE213
:1013B000B0E0EDE2F0E080818E7F8C93ADE2B0E0B2
:1013C000EDE2F0E080818D7F8C93AEE2B0E0EEE262
:1013D000F0E0808181608C9386C0ADE2B0E0EDE208
:1013E000F0E080818E7F8C93ADE2B0E0EDE2F0E042
:1013F00080818D7F8C93AEE2B0E0EEE2F0E0808100
:101400008E7F8C9370C0ADE2B0E0EDE2F0E08081C1
:1014100081608C93ADE2B0E0EDE2F0E080818D7F01
:101420008C93AEE2B0E0EEE2F0E0808181608C93DC
:101430005AC0ADE2B0E0EDE2F0E0808181608C93D3
:10144000ADE2B0E0EDE2F0E080818D7F8C93AEE222
:10145000B0E0EEE2F0E080818E7F8C9344C0ADE29C
:10146000B0E0EDE2F0E080818E7F8C93ADE2B0E001
:10147000EDE2F0E0808182608C93AEE2B0E0EEE2DB
:10148000F0E0808181608C932EC0ADE2B0E0EDE2AF
:10149000F0E080818E7F8C93ADE2B0E0EDE2F0E091
:1014A000808182608C93AEE2B0E0EEE2F0E0808179
:1014B0008E7F8C9318C0ADE2B0E0EDE2F0E0808169
:1014C00081608C93ADE2B0E0EDE2F0E0808182607B
:1014D0008C93AEE2B0E0EEE2F0E080818E7F8C9300
:1014E00002C081E08983EA81FB818281282F30E07C
:1014F0003B872A878A859B85009769F02A853B85EB
:101500002130310581F4ADE2B0E0EDE2F0E0808120
:101510008F7D8C930AC0ADE2B0E0EDE2F0E0808117
:1015200080628C9302C081E08983EA81FB818381A0
:10153000282F30E03987288788859985009731F0F2
:10154000288539852130310549F010C0ADE2B0E081
:10155000EDE2F0E0808180618C930AC0ADE2B0E002
:10156000EDE2F0E080818F7E8C9302C081E0898380
:10157000EA81FB818081282F30E03F832E838E819A
:101580009F81009731F02E813F812130310549F054
:1015900010C0ADE2B0E0EDE2F0E080818F778C9397
:1015A0000AC0ADE2B0E0EDE2F0E0808180688C93AB
:1015B00002C081E08983EA81FB818181282F30E0AC
:1015C0003D832C838C819D81009731F02C813D815E
:1015D0002130310549F010C0ADE2B0E0EDE2F0E0BD
:1015E00080818F7B8C930DC0ADE2B0E0EDE2F0E046
:1015F000808180648C9305C081E0898302C082E091
:101600008983898161960FB6F894DEBF0FBECDBF86
:10161000CF91DF910895DF93CF93CDB7DEB72897B1
:101620000FB6F894DEBF0FBECDBF8E8378876F8371
:1016300085E08D8319821A821B821C8280916E0044
:101640008823E1F581E080936E00EFE2F0E08E8187
:1016500080830BC089819A81AB81BC810196A11DD9
:10166000B11D89839A83AB83BC83EEE2F0E0808175
:10167000882364F089819A81AB81BC81803127E223
:10168000920720E0A20720E0B20720F389819A8127
:10169000AB81BC81803127E2920720E0A20720E0E5
:1016A000B20719F484E08D8306C0EFE2F0E0808198
:1016B000EF81F885808310926E0002C083E08D83F5
:1016C0008D8128960FB6F894DEBF0FBECDBFCF91A7
:1016D000DF910895DF93CF93CDB7DEB727970FB68D
:1016E000F894DEBF0FBECDBF9C838B837E836D835A
:1016F0004F8385E08A8319828B819C81009709F151
:101700008D819E810097E9F017C08981282F30E0F4
:101710008B819C81FC01E20FF31F40818981282F7E
:1017200030E08D819E81280F391F842FB9010E94DE
:101730000B0B89818F5F898399818F81981728F39B
:1017400002C082E08A838A8127960FB6F894DEBFB2
:101750000FBECDBFCF91DF910895DF93CF9300D01F
:101760000F92CDB7DEB79B838A8385E08983809112
:101770006E00882309F055C08A819B81009709F487
:101780004DC0EA81FB8180819181009709F446C0B8
:10179000EA81FB8182819381009709F43FC0EA814D
:1017A000FB81858196810097C9F181E080936E006D
:1017B000EA81FB8180819181909369008093680028
:1017C000EA81FB818281938190936B0080936A0010
:1017D000EA81FB81848180936F00EA81FB818581AE
:1017E000968190936D0080936C0010927000AFE230
:1017F000B0E0209168003091690080917000882FDE
:1018000090E0F901E80FF91F80818C93ADE2B0E020
:10181000EDE2F0E0808180688C9305C082E08983EE
:1018200002C083E0898389810F900F900F90CF9140
:10183000DF9108951F920F920FB60F9211242F93EC
:101840003F934F935F936F937F938F939F93AF9348
:10185000BF93EF93FF93DF93CF93CDB7DEB7209184
:101860006A0030916B0080917000882F90E0D90160
:10187000A80FB91FEFE2F0E080818C938091700097
:101880008F5F809370009091700080916F00981727
:1018900079F410926E00ADE2B0E0EDE2F0E080810C
:1018A0008F778C93E0916C00F0916D0009950FC0DB
:1018B000AFE2B0E020916800309169008091700043
:1018C000882F90E0F901E80FF91F80818C93CF9168
:1018D000DF91FF91EF91BF91AF919F918F917F9198
:1018E0006F915F914F913F912F910F900FBE0F908D
:1018F0001F9018952F923F924F925F926F927F9216
:101900008F929F92AF92BF92CF92DF92EF92FF920F
:101910000F931F93CF93DF93CDB7DEB7CA1BDB0BBB
:101920000FB6F894DEBF0FBECDBF09942A88398860
:1019300048885F846E847D848C849B84AA84B98467
:10194000C884DF80EE80FD800C811B81AA81B98173
:10195000CE0FD11D0FB6F894DEBF0FBECDBFED0187
:061960000895F894FFCF8A
:08196600000000000000000079
:00000001FF
