:100000000C942A000C9447000C9447000C94470071
:100010000C9447000C9447000C9447000C94470044
:100020000C9447000C9447000C9447000C94470034
:100030000C9447000C9447000C9447000C94470024
:100040000C9447000C9447000C9447000C94470014
:100050000C94470011241FBECFE5D8E0DEBFCDBF12
:1000600011E0A0E6B0E0EEE0FCE202C005900D92E7
:10007000AA38B107D9F711E0AAE8B1E001C01D9292
:10008000A63EB107E1F70E94FD0F0C9405160C94F3
:100090000000EF92FF920F931F937B018C0120E0F1
:1000A00030E040E05FE40E94490388238CF0C801FF
:1000B000B70120E030E040E05FE40E94C1010E940F
:1000C00007049B01AC01205030404040504806C01E
:1000D000C801B7010E9407049B01AC01B901CA0124
:1000E0001F910F91FF90EF900895A0E0B0E0EBE733
:1000F000F0E00C94CE15DC012B01FA019C919230BA
:1001000008F439C1EB018881823008F433C194309E
:1001100069F4843009F02FC111969C91119789815F
:10012000981709F428C1A0E6B0E025C1843009F48D
:1001300021C18230A9F4923009F01DC19A01AD01AC
:1001400088E0EA010990AE01E90109929E0181501F
:10015000C1F7E201898111969C918923818308C1AD
:10016000923009F407C112962D903C901397EB0141
:100170008A819B811496AD90BD90CD90DC901797AD
:10018000EC80FD800E811F819101281B390BB90184
:1001900037FF04C066277727621B730B6032710537
:1001A0000CF061C0121613066CF537014801062EDB
:1001B00004C096948794779467940A94D2F721E0C8
:1001C00030E040E050E004C0220F331F441F551FB1
:1001D0006A95D2F721503040404050402E213F21B7
:1001E00040235123211531054105510521F021E01E
:1001F00030E040E050E079018A01E628F72808293C
:1002000019293CC0232BD1F1260E371E350146019A
:10021000062E04C096948794779467940A94D2F734
:1002200021E030E040E050E004C0220F331F441FC3
:10023000551F6A95D2F721503040404050402A2146
:100240003B214C215D21211531054105510521F04E
:1002500021E030E040E050E059016A01A628B728CB
:10026000C828D9280BC0821593052CF01C01AA249C
:10027000BB24650103C0EE24FF24870111969C91E5
:10028000D20111968C91981709F445C0992339F041
:10029000A80197012A193B094C095D0906C0A6016E
:1002A00095012E193F09400B510B57FD08C01182D3
:1002B0003382228224833583468357831DC081E0A5
:1002C00081833382228288279927DC01821B930B4A
:1002D000A40BB50B84839583A683B7830DC0220F2F
:1002E000331F441F551F24833583468357838281E0
:1002F000938101979383828324813581468157813D
:10030000DA01C9010197A109B1098F5F9F4FAF4F72
:10031000BF4328F30BC0918333822282EA0CFB1C7B
:100320000C1D1D1DE482F5820683178383E0808304
:10033000248135814681578157FF1AC0C901AA27F8
:1003400097FDA095BA2F81709070A070B0705695EF
:10035000479537952795822B932BA42BB52B848318
:100360009583A683B7838281938101969383828349
:10037000DF0101C0D201CD01CDB7DEB7E2E10C94BF
:10038000EA15A0E2B0E0E7ECF1E00C94DA1569833D
:100390007A838B839C832D833E834F835887E9E048
:1003A000EE2EF12CEC0EFD1ECE010196B7010E943F
:1003B0007F058E010F5E1F4FCE010596B8010E948A
:1003C0007F058A8991E089278A8BC701B801AE0130
:1003D000475E5F4F0E9475000E94AA04A096E6E067
:1003E0000C94F615A0E2B0E0E8EFF1E00C94DA1519
:1003F00069837A838B839C832D833E834F835887C5
:10040000F9E0EF2EF12CEC0EFD1ECE010196B701A6
:100410000E947F058E010F5E1F4FCE010596B80129
:100420000E947F05C701B801AE01475E5F4F0E9481
:1004300075000E94AA04A096E6E00C94F615A0E2CE
:10044000B0E0E5E2F2E00C94CE1569837A838B8309
:100450009C832D833E834F835887CE010196BE0136
:10046000675F7F4F0E947F05CE010596BE016F5EDC
:100470007F4F0E947F059985923088F0898982306C
:10048000C8F0943019F4823051F404C0843029F457
:10049000923081F480E690E0C6C0923049F420E0CA
:1004A0009A858A89981321E02A87CE010996BBC0D4
:1004B000823049F420E09A858A89981321E02A8BBA
:1004C000CE014196B0C02D843E844F8458886D88FB
:1004D0007E888F88988CEE24FF248701AA24BB2471
:1004E000650140E050E060E070E0E0E0F0E0C10174
:1004F00081709070892BE9F0E60CF71C081D191D1E
:100500009A01AB012A0D3B1D4C1D5D1D80E090E062
:10051000A0E0B0E0E614F7040805190520F481E036
:1005200090E0A0E0B0E0BA01A901480F591F6A1F8E
:100530007B1FAA0CBB1CCC1CDD1C97FE08C081E0F5
:1005400090E0A0E0B0E0A82AB92ACA2ADB2A3196B6
:10055000E032F10549F0660C771C881C991C569412
:10056000479437942794C3CFFA85EA892B893C892D
:100570008B859C85280F391F2E5F3F4F17C0CA01FE
:1005800081709070892B61F016950795F794E79428
:1005900080E090E0A0E0B0E8E82AF92A0A2B1B2BC3
:1005A00076956795579547952F5F3F4F77FDE7CF36
:1005B0000CC0440F551F661F771F17FD4160EE0CDE
:1005C000FF1C001F111F21503040403090E05907A0
:1005D00090E0690790E4790760F32B8F3C8FDB0193
:1005E000CA018F779070A070B07080349105A1051A
:1005F000B10561F447FD0AC0E114F10401051105DC
:1006000029F0405C5F4F6F4F7F4F40781A8EFE1786
:1006100011F081E08A8F4D8F5E8F6F8F78A383E01A
:10062000898FCE0149960E94AA04A096E2E10C941B
:10063000EA15A8E1B0E0EFE1F3E00C94DA15698384
:100640007A838B839C832D833E834F83588789E0F5
:10065000E82EF12CEC0EFD1ECE010196B7010E9492
:100660007F058E010F5E1F4FCE010596B8010E94D7
:100670007F058985823040F08989823028F0C70162
:10068000B8010E94F70501C08FEF6896E6E00C9470
:10069000F615A8E1B0E0EFE4F3E00C94DA15698315
:1006A0007A838B839C832D833E834F83588789E095
:1006B000E82EF12CEC0EFD1ECE010196B7010E9432
:1006C0007F058E010F5E1F4FCE010596B8010E9477
:1006D0007F058985823040F08989823028F0C70102
:1006E000B8010E94F70501C08FEF6896E6E00C9410
:1006F000F615A8E1B0E0EFE7F3E00C94DA156983B2
:100700007A838B839C832D833E834F83588789E034
:10071000E82EF12CEC0EFD1ECE010196B7010E94D1
:100720007F058E010F5E1F4FCE010596B8010E9416
:100730007F058985823040F08989823028F0C701A1
:10074000B8010E94F70501C081E06896E6E00C94CC
:10075000F615A8E0B0E0EFEAF3E00C94D7159B01A2
:10076000AC0183E08983DA01C9018827B7FD83954D
:100770009927AA27BB27B82E211531054105510518
:1007800019F482E089833AC08823A9F0203080E000
:10079000380780E0480780E8580729F460E070E0F7
:1007A00080E09FEC30C0EE24FF248701E21AF30AB8
:1007B000040B150B02C079018A018EE1C82ED12CE1
:1007C000DC82CB82ED82FE820F831887C801B701DD
:1007D0000E945B0401971816190684F4082E04C0C1
:1007E000EE0CFF1C001F111F0A94D2F7ED82FE824F
:1007F0000F831887C81AD90ADC82CB82BA82CE014D
:1008000001960E94AA042896E9E00C94F315ACE046
:10081000B0E0EDE0F4E00C94DE1569837A838B831D
:100820009C83CE010196BE016B5F7F4F0E947F05C6
:100830008D81823061F1823050F1843021F48E81DB
:10084000882351F12EC02F81388537FD20C06E815D
:100850002F3131051CF06623F9F023C08EE190E0C2
:10086000821B930B29853A854B855C8504C0569580
:100870004795379527958A95D2F76623B1F050951D
:100880004095309521953F4F4F4F5F4F0EC020E070
:1008900030E040E050E009C02FEF3FEF4FEF5FE75F
:1008A00004C020E030E040E050E8B901CA012C96D5
:1008B000E2E00C94FA15EF92FF920F931F937B01E5
:1008C0008C0180E0E81680E0F80681E0080780E00F
:1008D000180788F48FEFE816F1040105110531F0CF
:1008E00028F088E090E0A0E0B0E017C080E090E061
:1008F000A0E0B0E012C080E0E81680E0F80680E0FA
:10090000080781E0180728F088E190E0A0E0B0E057
:1009100004C080E190E0A0E0B0E020E230E040E000
:1009200050E0281B390B4A0B5B0B04C0169507954A
:10093000F794E7948A95D2F7F701E859FF4F808141
:10094000281B310941095109C9011F910F91FF90DD
:10095000EF900895DF92EF92FF920F931F93FC01A7
:10096000E480F58006811781D1808081823048F44F
:1009700080E090E0A0E1B0E0E82AF92A0A2B1B2BE6
:10098000A5C0843009F49FC0823021F4EE24FF24F6
:10099000870105C0E114F1040105110519F4E0E037
:1009A000F0E096C0628173819FEF623879070CF0A6
:1009B0005BC022E83FEF261B370B2A3131052CF0B4
:1009C00020E030E040E050E02AC0B801A701022E4C
:1009D00004C076956795579547950A94D2F781E0BC
:1009E00090E0A0E0B0E004C0880F991FAA1FBB1FD1
:1009F0002A95D2F70197A109B1098E219F21A02341
:100A0000B1230097A105B10521F081E090E0A0E0BD
:100A1000B0E09A01AB01282B392B4A2B5B2BDA0172
:100A2000C9018F779070A070B07080349105A105D6
:100A3000B10539F427FF09C0205C3F4F4F4F5F4F8E
:100A400004C0215C3F4F4F4F5F4FE0E0F0E02030AB
:100A5000A0E03A07A0E04A07A0E45A0710F0E1E05E
:100A6000F0E079018A0127C06038710564F5FB0167
:100A7000E158FF4FD801C7018F779070A070B07018
:100A800080349105A105B10539F4E7FE0DC080E47D
:100A900090E0A0E0B0E004C08FE390E0A0E0B0E020
:100AA000E80EF91E0A1F1B1F17FF05C016950795B4
:100AB000F794E794319687E016950795F794E794B5
:100AC0008A95D1F705C0EE24FF248701EFEFF0E00F
:100AD0006E2F679566276795902F9F77D794DD24B3
:100AE000D7948E2F8695492F462B582F5D29B70115
:100AF000CA011F910F91FF90EF90DF900895FC01C4
:100B0000DB01408151812281622F6F7770E0221FCB
:100B10002227221F9381892F880F822B282F30E0D4
:100B2000991F9927991F11969C93119721153105AB
:100B3000A9F5411551056105710511F482E037C031
:100B400082E89FEF13969C938E9312979A01AB01C4
:100B500067E0220F331F441F551F6A95D1F783E0CA
:100B60008C930DC0220F331F441F551F12968D9179
:100B70009C911397019713969C938E931297203014
:100B800080E0380780E0480780E4580758F314965F
:100B90002D933D934D935C93179708952F3F310507
:100BA00079F4411551056105710519F484E08C93C0
:100BB000089564FF03C081E08C9312C01C9210C0A2
:100BC0002F57304013963C932E93129783E08C93CB
:100BD00087E0440F551F661F771F8A95D1F7706411
:100BE00014964D935D936D937C93179708951F937F
:100BF000DC01FB019C91923008F447C08081823077
:100C000008F443C0943051F411961C91843099F546
:100C10008181682F70E0611B71093FC0843021F031
:100C2000923031F48230B9F18181882389F12DC06D
:100C300011961C9111978230F1F081811817D9F427
:100C400012962D913C91139782819381821793077D
:100C500094F028173907BCF014968D919D910D9052
:100C6000BC91A02D248135814681578128173907F1
:100C70004A075B0718F4112341F00AC08217930753
:100C8000A407B50740F4112319F061E070E005C036
:100C90006FEF7FEF02C060E070E0CB011F9108951D
:100CA000DF93CF93CDB7DEB760970FB6F894DEBF72
:100CB0000FBECDBF888B1F8682E460E040E00E94BB
:100CC000D21282E461E040E00E94D2128889982F1B
:100CD000991F9927991F83E460E0492F0E94D2123F
:100CE00088898295869586958370982F917083E484
:100CF00061E0492F0E94D21288898295869587707B
:100D0000982F917083E462E0492F0E94D212888963
:100D100082958F70982F917083E463E0492F0E9431
:100D2000D2128889869586958695982F917083E44E
:100D300064E0492F0E94D212888986958695982F63
:100D4000917083E465E0492F0E94D21288898695CC
:100D5000982F917083E466E0492F0E94D21288890F
:100D6000982F917083E467E0492F0E94D21282E4A9
:100D700062E041E00E94D21280E090E0A0E0B0E4A6
:100D80008B879C87AD87BE876B857C858D859E858F
:100D900020E030E04AEF54E40E941F02DC01CB0166
:100DA0008F839887A987BA876F81788589859A8587
:100DB00020E030E040E85FE30E94790388232CF4D0
:100DC00081E090E09E838D833FC06F817885898527
:100DD0009A8520E03FEF4FE757E40E941903181669
:100DE0004CF56B857C858D859E8520E030E040E26A
:100DF00051E40E941F02DC01CB01BC01CD010E9425
:100E00004900DC01CB019E838D830FC088EC90E00C
:100E10009C838B838B819C810197F1F79C838B83CF
:100E20008D819E8101979E838D838D819E81009708
:100E300069F714C06F81788589859A850E94490079
:100E4000DC01CB019E838D838D819E819A83898372
:100E500089819A810197F1F79A83898382E462E01C
:100E600040E00E94D2128F8560960FB6F894DEBFE4
:100E70000FBECDBFCF91DF910895DF93CF93CDB754
:100E8000DEB760970FB6F894DEBF0FBECDBF888B7C
:100E90001F8682E460E041E00E94D21282E461E0B9
:100EA00040E00E94D2128889982F991F9927991F94
:100EB00083E460E0492F0E94D2128889829586954A
:100EC00086958370982F917083E461E0492F0E948A
:100ED000D2128889829586958770982F917083E4C5
:100EE00062E0492F0E94D212888982958F70982FD4
:100EF000917083E463E0492F0E94D212888986951D
:100F000086958695982F917083E464E0492F0E941E
:100F1000D212888986958695982F917083E465E032
:100F2000492F0E94D21288898695982F917083E468
:100F300066E0492F0E94D2128889982F917083E42D
:100F400067E0492F0E94D21282E462E041E00E94F1
:100F5000D21280E090E0A0E0B0E48B879C87AD8760
:100F6000BE876B857C858D859E8520E030E04AEFCD
:100F700054E40E941F02DC01CB018F839887A9876C
:100F8000BA876F81788589859A8520E030E040E8CE
:100F90005FE30E94790388232CF481E090E09E8334
:100FA0008D833FC06F81788589859A8520E03FEFEA
:100FB0004FE757E40E94190318164CF56B857C85A2
:100FC0008D859E8520E030E040E251E40E941F02C2
:100FD000DC01CB01BC01CD010E944900DC01CB0149
:100FE0009E838D830FC088EC90E09C838B838B81E4
:100FF0009C810197F1F79C838B838D819E81019762
:101000009E838D838D819E81009769F714C06F81C7
:10101000788589859A850E944900DC01CB019E83F1
:101020008D838D819E819A83898389819A8101979D
:10103000F1F79A83898382E462E040E00E94D21251
:101040008F8560960FB6F894DEBF0FBECDBFCF91EF
:10105000DF910895DF93CF93CDB7DEB72F970FB60B
:10106000F894DEBF0FBECDBF1F8680E090E0A0E207
:10107000B2E48B879C87AD87BE876B857C858D8529
:101080009E8520E030E04AEF54E40E941F02DC011C
:10109000CB018F839887A987BA876F8178858985E7
:1010A0009A8520E030E040E85FE30E9479038823DE
:1010B0002CF481E090E09E838D833FC06F81788522
:1010C00089859A8520E03FEF4FE757E40E94190396
:1010D00018164CF56B857C858D859E8520E030E06B
:1010E00040E251E40E941F02DC01CB01BC01CD01B2
:1010F0000E944900DC01CB019E838D830FC088ECE8
:1011000090E09C838B838B819C810197F1F79C837A
:101110008B838D819E8101979E838D838D819E819E
:10112000009769F714C06F81788589859A850E9438
:101130004900DC01CB019E838D838D819E819A8342
:10114000898389819A810197F1F79A83898388E35A
:101150000E9450068CE00E94500681E00E945006DA
:1011600086E00E9450068F852F960FB6F894DEBF5A
:101170000FBECDBFCF91DF910895DF93CF9300D005
:1011800000D0CDB7DEB79C838B831A8219828B8106
:101190009C810097E9F081E08A830EC08981282F25
:1011A00030E08B819C81FC01E20FF31F80810E9463
:1011B0003D0789818F5F89838981282F30E08B816A
:1011C0009C81FC01E20FF31F8081882339F702C064
:1011D00082E08A838A810F900F900F900F90CF91B9
:1011E000DF910895DF93CF9300D000D0CDB7DEB765
:1011F0008B836C831A8219828B81882329F48C81DA
:10120000898381E08A830BC08B81813031F48C81AA
:10121000805C898381E08A8302C083E08A8389813C
:1012200080580E9450068A810F900F900F900F9067
:10123000CF91DF910895DF93CF93CDB7DEB7289795
:101240000FB6F894DEBF0FBECDBF9D838C836E8337
:101250004F8328871B821A8219828E81882F90E003
:10126000880F991F880F991F880F991F898389817B
:10127000805C0E9450061A820EC08A81282F30E0BE
:101280008C819D81FC01E20FF31F80810E943D074C
:101290008A818F5F8A838A81883078F38F8168851D
:1012A0000E94F2088E810E943D078B8128960FB61E
:1012B000F894DEBF0FBECDBFCF91DF910895DF93CD
:1012C000CF930F92CDB7DEB7198281E00E9450060E
:1012D00089810F90CF91DF910895DF93CF93CDB7A0
:1012E000DEB7A1970FB6F894DEBF0FBECDBF6E8FED
:1012F0007F8F88A399A3198618866E8D7F8D88A10C
:1013000099A120E030E040E050E00E94790388237A
:1013100064F48DE20E943D078E8D9F8DA8A1B9A136
:10132000B0588E8F9F8FA8A3B9A36E8D7F8D88A193
:1013300099A10E940704DC01CB019F838E838E81DB
:101340009F81AA2797FDA095BA2FBC01CD010E94CD
:10135000A9039B01AC016E8D7F8D88A199A10E948C
:10136000C101DC01CB01BC01CD0120E030E543EC43
:1013700057E40E941F02DC01CB01BC01CD010E9499
:101380000704DC01CB019D838C838C819D810097B8
:1013900009F062C06E8D7F8D88A199A10E9407041B
:1013A000DC01CB019F838E831DC08885E82FF0E090
:1013B0008E819F812AE030E0B9010E94A715282F75
:1013C000CE010A96E80FF91F20838E819F812AE0C3
:1013D00030E0B9010E94A715CB019F838E838885D9
:1013E0008F5F88878E819F810097F9F6888581506D
:1013F0008B8311C08B81282F332727FD3095CE0199
:101400000A96FC01E20FF31F8081805D0E943D0778
:101410008B8181508B838B81882364F782C0888580
:10142000E82FF0E08E819F812AE030E0B9010E9430
:10143000A715282FCE010A96E80FF91F20838E8169
:101440009F812AE030E0B9010E94A715CB019F835C
:101450008E8388858F5F88878E819F810097F9F6BC
:10146000888581508A831CC08A81282F332727FDD5
:101470003095CE010A96FC01E20FF31F8081805D5A
:101480000E943D078A81282F332727FD3095CE0102
:101490000A96FC01E20FF31F10828A8181508A8331
:1014A0008A8188230CF78EE20E943D0718861DC0B2
:1014B0008885E82FF0E08C819D812AE030E0B90139
:1014C0000E94A715282FCE010A96E80FF91F208346
:1014D0008C819D812AE030E0B9010E94A715CB01E3
:1014E0009D838C8388858F5F88878C819D81009701
:1014F000F9F688858150898311C08981282F332787
:1015000027FD3095CE010A96FC01E20FF31F808182
:10151000805D0E943D07898181508983898188236C
:1015200064F78985A1960FB6F894DEBF0FBECDBFD4
:10153000CF91DF910895DF93CF930F92CDB7DEB7B0
:101540008983809168019091690101969093690166
:10155000809368018091680190916901FC01E457D2
:10156000FE4F898180830F90CF91DF910895DF93A3
:10157000CF930F92CDB7DEB780916801909169014A
:101580002FEF8F3F920719F48FEF89830EC0809160
:10159000680190916901FC01E457FE4F2081298385
:1015A0000197909369018093680189810F90CF9191
:1015B000DF910895DF93CF9300D0CDB7DEB7898355
:1015C0008981803330F089818A3318F481E08A83FD
:1015D00001C01A828A810F900F90CF91DF910895F8
:1015E000DF93CF9300D0CDB7DEB7898389818B326B
:1015F00019F089818D3219F481E08A830AC08981CA
:101600008A3219F089818F3219F482E08A8301C00D
:101610001A828A810F900F90CF91DF910895DF9306
:10162000CF9300D0CDB7DEB7898389818B3249F063
:1016300089818D3231F089818A3219F089818F3226
:1016400019F481E08A8301C01A828A810F900F9079
:10165000CF91DF910895DF93CF93CDB7DEB7299770
:101660000FB6F894DEBF0FBECDBF9D838C837F8302
:101670006E8382E08B831A821982ACC2EC81FD8179
:1016800080810E940F0B882309F48FC2EC81FD81B9
:1016900080818D3229F0EC81FD8180818B3229F5AA
:1016A00089819A81009709F5EC81FD8180818B32D7
:1016B00031F48C819D8101969D838C838BC229811D
:1016C0003A818E819F81DC01A20FB31FEC81FD81E5
:1016D00080818C9389819A8101969A8389838C81F8
:1016E0009D8101969D838C8375C2EC81FD818081F3
:1016F0008D3231F0EC81FD8180818B3209F03FC168
:1017000089819A81009709F43AC129813A818C81B3
:101710009D81FC01E20FF31F80818D3269F4898184
:101720009A819C012F5F3F4F8C819D81FC01E20FCC
:10173000F31F80818D32B9F029813A818C819D819E
:10174000FC01E20FF31F80818B3231F589819A8190
:101750009C012F5F3F4F8C819D81FC01E20FF31FA5
:1017600080818B32C9F429813A818E819F81FC016D
:10177000E20FF31F8BE280838C819D8101969D8314
:101780008C838C819D8101969D838C8389819A8134
:1017900001969A8389831EC229813A818C819D8119
:1017A000FC01E20FF31F80818D3269F489819A81F7
:1017B0009C012F5F3F4F8C819D81FC01E20FF31F45
:1017C00080818B32B9F029813A818C819D81FC0125
:1017D000E20FF31F80818B3231F589819A819C0160
:1017E0002F5F3F4F8C819D81FC01E20FF31F8081B1
:1017F0008D32C9F429813A818E819F81FC01E20FEB
:10180000F31F8DE280838C819D8101969D838C8363
:101810008C819D8101969D838C8389819A8101961B
:101820009A838983D7C129813A818C819D81FC016A
:10183000E20FF31F80818D3271F489819A819C01BE
:101840002F5F3F4F8C819D81FC01E20FF31F808150
:101850008A3209F445C029813A818C819D81FC013D
:10186000E20FF31F80818D3269F489819A819C0196
:101870002F5F3F4F8C819D81FC01E20FF31F808120
:101880008F3271F129813A818C819D81FC01E20FB7
:10189000F31F80818B3269F489819A819C012F5FCB
:1018A0003F4F8C819D81FC01E20FF31F80818A32C2
:1018B000B9F029813A818C819D81FC01E20FF31FEF
:1018C00080818B3291F489819A819C012F5F3F4FF7
:1018D0008C819D81FC01E20FF31F80818F3229F4FE
:1018E00081E08B838B8188877CC129813A818C81BF
:1018F0009D81FC01E20FF31F80818D3279F4898193
:101900009A819C012F5F3F4F8C819D81FC01E20FEA
:10191000F31F80810E94DA0A8823D9F429813A8151
:101920008C819D81FC01E20FF31F80818B3209F0D5
:1019300051C189819A819C012F5F3F4F8C819D818C
:10194000FC01E20FF31F80810E94DA0A882309F468
:1019500041C129813A818E819F81DC01A20FB31F91
:10196000EC81FD8180818C938C819D8101969D838A
:101970008C8389819A8101969A8389832BC1EC811A
:10198000FD8180818A3229F0EC81FD8180818F3256
:1019900049F489819A81009729F481E08B838B81B6
:1019A00088871FC1EC81FD8180818A3231F0EC8112
:1019B000FD8180818F3209F00DC189819A81009764
:1019C00009F408C129813A818C819D81FC01E20FD3
:1019D000F31F80818F3271F489819A819C012F5F7E
:1019E0003F4F8C819D81FC01E20FF31F80818F327C
:1019F00009F445C029813A818C819D81FC01E20F67
:101A0000F31F80818A3269F489819A819C012F5F5A
:101A10003F4F8C819D81FC01E20FF31F80818A3250
:101A200071F129813A818C819D81FC01E20FF31FC4
:101A300080818A3269F489819A819C012F5F3F4FAE
:101A40008C819D81FC01E20FF31F80818F32B9F000
:101A500029813A818C819D81FC01E20FF31F8081F5
:101A60008F3291F489819A819C012F5F3F4F8C8145
:101A70009D81FC01E20FF31F80818A3229F481E00D
:101A80008B838B818887ADC029813A818C819D8130
:101A9000FC01E20FF31F80818F3269F489819A8102
:101AA0009C012F5F3F4F8C819D81FC01E20FF31F52
:101AB00080818B32B9F029813A818C819D81FC0132
:101AC000E20FF31F80818A3241F589819A819C015E
:101AD0002F5F3F4F8C819D81FC01E20FF31F8081BE
:101AE0008B32D9F429813A818E819F81DC01A20F4A
:101AF000B31FEC81FD8180818C938C819D81019647
:101B00009D838C838C819D8101969D838C838981AB
:101B10009A8101969A8389835DC029813A818C815B
:101B20009D81FC01E20FF31F80818A3279F4898163
:101B30009A819C012F5F3F4F8C819D81FC01E20FB8
:101B4000F31F80810E94DA0A8823C9F429813A812F
:101B50008C819D81FC01E20FF31F80818F32D1F5D2
:101B600089819A819C012F5F3F4F8C819D81FC016F
:101B7000E20FF31F80810E94DA0A882359F129813C
:101B80003A818E819F81DC01A20FB31FEC81FD8120
:101B900080818C938C819D8101969D838C8389812A
:101BA0009A8101969A83898315C029813A818E8111
:101BB0009F81DC01A20FB31FEC81FD8180818C939A
:101BC00089819A8101969A8389838C819D8101966E
:101BD0009D838C83EC81FD818081882309F04ECD2B
:101BE00002C088858987898529960FB6F894DEBF5B
:101BF0000FBECDBFCF91DF910895DF93CF93CDB7C7
:101C0000DEB72A970FB6F894DEBF0FBECDBF988718
:101C10008F837A8769871E821D821C821B8281E0E6
:101C200090E09A8389839AC0EF81F88580810E9431
:101C3000DA0A882331F4EF81F88580818D3209F04A
:101C400074C089819A81823091050CF442C08B81E5
:101C50009C81AC01415050408B819C810197880F41
:101C6000991FFC01E655FE4F2081318189819A81BF
:101C7000B901689F9001699F300D789F300D112444
:101C8000CA01880F991FFC01E655FE4F318320835E
:101C90008B819C81AC01415050408B819C8101978C
:101CA000880F991FFC01E655FE4F20813181EF819D
:101CB000F8858081992787FD9095C097280F391F57
:101CC000CA01880F991FFC01E655FE4F318320831E
:101CD00040C04B815C81EF81F8858081992787FD29
:101CE00090959C0120533040CA01880F991FFC0138
:101CF000E655FE4F318320832D813E8189859A856B
:101D0000FC01E20FF31F8B818F5B80838AE090E000
:101D10009A8389838B819C8101969C838B838D819F
:101D20009E8101969E838D8314C02D813E8189857D
:101D30009A85DC01A20FB31FEF81F88580818C9317
:101D400081E090E09A8389838D819E8101969E83B4
:101D50008D838F819885019698878F83EF81F88591
:101D60008081882309F060CF2A960FB6F894DEBFF1
:101D70000FBECDBFCF91DF9108950F931F93DF93D7
:101D8000CF9300D000D00F92CDB7DEB79B838A836C
:101D90007D836C83198242C0EA81FB8180810E942D
:101DA000DA0A8823F9F08981282F30E08C819D811F
:101DB000DC01A20FB31FEA81FB8180818C938981B2
:101DC0008F5F898326C08981282F30E08C819D8197
:101DD0008C01020F131F0E94B70AF80180838981CA
:101DE0008F5F89838091680190916901FC01E457BC
:101DF000FE4F80810E94F00A182FEA81FB818081CA
:101E00000E94F00A1817F8F6EA81FB8180810E948F
:101E10009B0A8A819B8101969B838A83EA81FB814D
:101E20008081882309F0B8CF0FC08981282F30E046
:101E30008C819D818C01020F131F0E94B70AF8014B
:101E4000808389818F5F8983809168019091690186
:101E5000FFEF8F3F9F0749F70F900F900F900F9064
:101E60000F90CF91DF911F910F910895DF93CF9342
:101E7000CDB7DEB72D970FB6F894DEBF0FBECDBF3E
:101E80009B878A8718861F821A8219828AC02F81AF
:101E900038858A859B85FC01E20FF31F8081898745
:101EA00089850E94DA0A882321F089850E949B0A8D
:101EB00073C00E94B70A882F90E09E838D830E9492
:101EC000B70A882F90E09C838B838985282F30E088
:101ED0003D872C874C855D854B325105B1F06C8573
:101EE0007D856C32710534F48C859D858A3291052F
:101EF00059F14EC02C853D852D32310599F04C8528
:101F00005D854F32510599F143C08D819E819C01C1
:101F1000205330408B819C81C097820F931F9A83FE
:101F2000898336C08B819C81AC014053504020E3B3
:101F300030E08D819E81B901681B790BCB01840F44
:101F4000951F9A83898324C08D819E819C01205393
:101F500030408B819C81C097AC01249FC001259F9C
:101F6000900D349F900D11249A83898311C08B8129
:101F70009C81AC01405350408D819E819C01205337
:101F80003040CA01B9010E94A715CB019A83898309
:101F90008981805D0E949B0A8F8198850196988730
:101FA0008F8320918A0130918B018F81988528172A
:101FB00039070CF06CCF0E94B70A882F90E02D965D
:101FC0000FB6F894DEBF0FBECDBFCF91DF9108955D
:101FD000DF93CF9300D0CDB7DEB7898389818F3669
:101FE00029F40E945F0981E08A8301C01A828A81F4
:101FF0000F900F90CF91DF910895DF93CF93CDB7DE
:10200000DEB7C254D0400FB6F894DEBF0FBECDBFCE
:102010008FEF8E831B821A820E9467100E942A080B
:10202000198220C00E94EB148E838E818F3FD1F3E2
:102030008E810E94E80F8823A9F48E818D33B1F040
:102040008981282F332727FD30954E81CE010796B1
:10205000FC01E20FF31F408389818F5F89838E81AA
:102060000E943D070E94EB148D33E1F6CE010796E6
:102070009D838C838981992787FD909590938B010F
:1020800080938A018C819D819E012B5D3F4FB90118
:102090000E94BD0ECE0185960E94360FC0979B838D
:1020A0008A8381E060E00E94F2088A819B81AA27EE
:1020B00097FDA095BA2FBC01CD010E94A903DC01B8
:1020C000CB01BC01CD010E946D091982CBCFDF93FA
:1020D000CF930F92CDB7DEB71982EAE3F0E080EF3D
:1020E0008083E7E3F0E08FEF8083E4E3F0E08FEFBD
:1020F0008083E1E3F0E08FEF8083EBE3F0E08FEFAC
:102100008083E8E3F0E01082E5E3F0E01082E2E3B0
:10211000F0E0108281E0898389810F90CF91DF9177
:102120000895DF93CF9300D000D00F92CDB7DEB7E4
:102130008A836B8319828A818534B0F58A81282F3E
:1021400030E03D832C838C819D8182349105D9F0D0
:102150002C813D812334310534F48C819D8181347F
:10216000910561F01EC02C813D812334310581F041
:102170008C819D818434910581F013C0EAE3F0E005
:102180008B8180830EC0E7E3F0E08B81808309C000
:10219000E4E3F0E08B81808304C0E1E3F0E08B8135
:1021A000808381E0898302C083E0898389810F90E5
:1021B0000F900F900F900F90CF91DF910895DF93C4
:1021C000CF9300D000D00F92CDB7DEB78A836B8358
:1021D00019828A818534B0F58A81282F30E03D83C9
:1021E0002C838C819D8182349105D9F02C813D8195
:1021F0002334310534F48C819D818134910561F063
:102200001EC02C813D812334310581F08C819D815C
:102210008434910581F013C0EBE3F0E08B8180837F
:102220000EC0E8E3F0E08B81808309C0E5E3F0E0D5
:102230008B81808304C0E2E3F0E08B81808381E0C6
:10224000898302C083E0898389810F900F900F906A
:102250000F900F90CF91DF910895DF93CF9300D02F
:1022600000D0CDB7DEB78A8319828A81853408F021
:1022700042C08A81282F30E03C832B838B819C8154
:1022800082349105F1F02B813C812334310534F403
:102290008B819C818134910561F02AC02B813C8126
:1022A00023343105B1F08B819C8184349105C9F0D0
:1022B0001FC0ABE3B0E0EBE3F0E0808180958C934E
:1022C00017C0A8E3B0E0E8E3F0E0808180958C934C
:1022D0000FC0A5E3B0E0E5E3F0E0808180958C934A
:1022E00007C0A2E3B0E0E2E3F0E0808180958C9348
:1022F00081E0898302C083E0898389810F900F90F8
:102300000F900F90CF91DF910895DF93CF9300D07E
:1023100000D000D0CDB7DEB78A837C836B8319826F
:102320008B819C81009709F445C08A81853408F02F
:102330003EC08A81282F30E03E832D838D819E818F
:1023400082349105E9F02D813E812334310534F446
:102350008D819E818134910561F026C02D813E8161
:1023600023343105A1F08D819E8184349105B1F033
:102370001BC0E9E3F0E08081EB81FC81808314C025
:10238000E6E3F0E08081EB81FC8180830DC0E3E334
:10239000F0E08081EB81FC81808306C0E0E3F0E027
:1023A0008081EB81FC81808381E0898305C083E0AB
:1023B000898302C082E08983898126960FB6F894CA
:1023C000DEBF0FBECDBFCF91DF910895DF93CF93D6
:1023D00000D000D000D0CDB7DEB78A836B834C83AA
:1023E00019828A81853408F0D1C08B81883008F049
:1023F000CDC08C81823008F0C9C08A81282F30E09E
:102400003E832D836D817E816234710509F441C064
:102410008D819E818334910534F42D813E81213458
:10242000310571F0B0C06D817E816334710509F4AE
:1024300059C08D819E818434910509F47CC0A3C06C
:10244000AAE3B0E0EAE3F0E08081482F8B81282FF7
:1024500030E081E090E002C0880F991F2A95E2F7F2
:10246000809584238C93AAE3B0E0EAE3F0E08081D6
:10247000482F8C81282F30E08B81882F90E0B90184
:1024800002C0660F771F8A95E2F7CB01842B8C93ED
:102490007AC0A7E3B0E0E7E3F0E08081482F8B81CA
:1024A000282F30E081E090E002C0880F991F2A9524
:1024B000E2F7809584238C93A7E3B0E0E7E3F0E0B4
:1024C0008081482F8C81282F30E08B81882F90E0ED
:1024D000B90102C0660F771F8A95E2F7CB01842B02
:1024E0008C9351C0A4E3B0E0E4E3F0E08081482F96
:1024F0008B81282F30E081E090E002C0880F991F87
:102500002A95E2F7809584238C93A4E3B0E0E4E37A
:10251000F0E08081482F8C81282F30E08B81882F3C
:1025200090E0B90102C0660F771F8A95E2F7CB01F0
:10253000842B8C9328C0A1E3B0E0E1E3F0E080813C
:10254000482F8B81282F30E081E090E002C0880F77
:10255000991F2A95E2F7809584238C93A1E3B0E03C
:10256000E1E3F0E08081482F8C81282F30E08B81DF
:10257000882F90E0B90102C0660F771F8A95E2F7B5
:10258000CB01842B8C9381E0898302C083E0898313
:10259000898126960FB6F894DEBF0FBECDBFCF91CE
:1025A000DF910895DF93CF9300D000D000D0CDB756
:1025B000DEB78A836B834C8319828A81853408F065
:1025C000D1C08B81883008F0CDC08C81823008F07A
:1025D000C9C08A81282F30E03E832D836D817E81A2
:1025E0006234710509F441C08D819E818334910567
:1025F00034F42D813E812134310571F0B0C06D81FC
:102600007E816334710509F459C08D819E818434C3
:10261000910509F47CC0A3C0ABE3B0E0EBE3F0E0CC
:102620008081482F8B81282F30E081E090E002C02C
:10263000880F991F2A95E2F7809584238C93ABE34A
:10264000B0E0EBE3F0E08081482F8C81282F30E070
:102650008B81882F90E0B90102C0660F771F8A95A1
:10266000E2F7CB01842B8C937AC0A8E3B0E0E8E3D7
:10267000F0E08081482F8B81282F30E081E090E0CE
:1026800002C0880F991F2A95E2F7809584238C93C6
:10269000A8E3B0E0E8E3F0E08081482F8C81282FA8
:1026A00030E08B81882F90E0B90102C0660F771F60
:1026B0008A95E2F7CB01842B8C9351C0A5E3B0E05F
:1026C000E5E3F0E08081482F8B81282F30E081E026
:1026D00090E002C0880F991F2A95E2F78095842325
:1026E0008C93A5E3B0E0E5E3F0E08081482F8C8196
:1026F000282F30E08B81882F90E0B90102C0660F4F
:10270000771F8A95E2F7CB01842B8C9328C0A2E334
:10271000B0E0E2E3F0E08081482F8B81282F30E0A9
:1027200081E090E002C0880F991F2A95E2F780951A
:1027300084238C93A2E3B0E0E2E3F0E08081482FB1
:102740008C81282F30E08B81882F90E0B90102C066
:10275000660F771F8A95E2F7CB01842B8C9381E07B
:10276000898302C083E08983898126960FB6F89415
:10277000DEBF0FBECDBFCF91DF910895DF93CF9322
:1027800000D000D00F92CDB7DEB78A836B83198259
:102790008A81853408F076C08B81883008F072C059
:1027A0008A81282F30E03D832C838C819D81823467
:1027B000910551F12C813D812334310534F48C8114
:1027C0009D818134910561F05AC02C813D81233473
:1027D000310571F18C819D8184349105E9F14FC0FF
:1027E000ABE3B0E0EBE3F0E08081482F8B81282F52
:1027F00030E081E090E0022E02C0880F991F0A9419
:10280000E2F784278C933BC0A8E3B0E0E8E3F0E074
:102810008081482F8B81282F30E081E090E0022ECC
:1028200002C0880F991F0A94E2F784278C9327C06F
:10283000A5E3B0E0E5E3F0E08081482F8B81282F0D
:1028400030E081E090E0022E02C0880F991F0A94C8
:10285000E2F784278C9313C0A2E3B0E0E2E3F0E058
:102860008081482F8B81282F30E081E090E0022E7C
:1028700002C0880F991F0A94E2F784278C9381E0A5
:10288000898302C083E0898389810F900F900F9024
:102890000F900F90CF91DF910895DF93CF93CDB735
:1028A000DEB727970FB6F894DEBF0FBECDBF8A8381
:1028B0006B835D834C8319828C819D81009709F421
:1028C0007EC08A81853408F077C08B81883008F01B
:1028D00073C08A81282F30E03F832E834E815F8131
:1028E0004234510559F18E819F818334910534F42E
:1028F0002E813F812134310569F05BC04E815F81BB
:102900004334510579F18E819F818434910509F416
:102910003DC04FC0E9E3F0E08081282F30E08B819B
:10292000882F90E0A90102C0559547958A95E2F756
:10293000CA018170EC81FD8180833BC0E6E3F0E059
:102940008081282F30E08B81882F90E0A90102C080
:10295000559547958A95E2F7CA018170EC81FD8112
:10296000808327C0E3E3F0E08081282F30E08B8173
:10297000882F90E0A90102C0559547958A95E2F706
:10298000CA018170EC81FD81808313C0E0E3F0E037
:102990008081282F30E08B81882F90E0A90102C030
:1029A000559547958A95E2F7CA018170EC81FD81C2
:1029B000808381E0898305C083E0898302C082E04F
:1029C0008983898127960FB6F894DEBF0FBECDBFED
:1029D000CF91DF910895DF93CF93CDB7DEB76A979C
:1029E0000FB6F894DEBF0FBECDBF8FEF8B831A8278
:1029F0001982CE0105969F8B8E8BEAE7F1E0F98F65
:102A0000E88FF0E1FA8FE88DF98D0080888D998D3F
:102A10000196998F888FEE89FF8900828E899F8920
:102A200001969F8B8E8B9A8D91509A8FEA8DEE2313
:102A300051F719827CC08981882F90E0FC01EE5803
:102A4000FE4F20818981882F90E0FC01EA58FE4FDB
:102A50009081822F692F40E00E94D2121A824DC0CD
:102A60008A81882F90E0FC01E659FE4F40818A81DF
:102A7000882F90E0FC01E259FE4F90819E012C5F6F
:102A80003F4F842F692FA9010E944D148C81882308
:102A900089F58A81282F30E08981482F50E0220F64
:102AA000331F220F331FCE010196820F931F840F15
:102AB000951FFC01349680818B8316C08A81882FF4
:102AC00090E0FC01E659FE4F40818A81882F90E01A
:102AD000FC01E259FE4F90819E012C5F3F4F842FF5
:102AE000692FA9010E944D148C81882339F3FB8141
:102AF000FD8B23C08A818F5F8A838A81843008F4AA
:102B0000AFCF8981882F90E0FC01EE58FE4F2081E5
:102B10008981882F90E0FC01EA58FE4F9081822F36
:102B2000692F41E00E94D21289818F5F8983898158
:102B3000843008F480CF8B818D8B8D896A960FB697
:102B4000F894DEBF0FBECDBFCF91DF91089597FB04
:102B5000092E07260AD077FD04D00CD006D000201D
:102B60001AF4709561957F4F0895F6F790958195C9
:102B70009F4F0895AA1BBB1B51E107C0AA1FBB1F93
:102B8000A617B70710F0A61BB70B881F991F5A95F9
:102B9000A9F780959095BC01CD0108952F923F92A1
:102BA0004F925F926F927F928F929F92AF92BF925D
:102BB000CF92DF92EF92FF920F931F93CF93DF9309
:102BC000CDB7DEB7CA1BDB0B0FB6F894DEBF0FBE66
:102BD000CDBF09942A88398848885F846E847D84B3
:102BE0008C849B84AA84B984C884DF80EE80FD80B5
:102BF0000C811B81AA81B981CE0FD11D0FB6F8942B
:0E2C0000DEBF0FBECDBFED010895F894FFCFEB
:102C0E0000000000000000000001020203030303A5
:102C1E00040404040404040405050505050505055E
:102C2E00050505050505050506060606060606063E
:102C3E000606060606060606060606060606060626
:102C4E00060606060606060607070707070707070E
:102C5E0007070707070707070707070707070707F6
:102C6E0007070707070707070707070707070707E6
:102C7E0007070707070707070707070707070707D6
:102C8E0007070707070707070808080808080808BE
:102C9E0008080808080808080808080808080808A6
:102CAE000808080808080808080808080808080896
:102CBE000808080808080808080808080808080886
:102CCE000808080808080808080808080808080876
:102CDE000808080808080808080808080808080866
:102CEE000808080808080808080808080808080856
:102CFE000808080808080808080808080808080846
:102D0E000808080808080808FFFF41414141000172
:102D1E00020341414141040506073738392F343546
:0A2D2E00362A3132332D6F303D2B71
:00000001FF
