:100000000C942A000C943F000C943F000C943F0089
:100010000C943F000C943F000C943F000C943F0064
:100020000C943F000C943F000C943F000C943F0054
:100030000C943F000C943F000C943F000C943F0044
:100040000C943F000C943F000C943F000C943F0034
:100050000C943F0011241FBECFE5D8E0DEBFCDBF1A
:1000600010E0A0E6B0E0E4ECFAE102C005900D92E9
:10007000A038B107D9F70E94B60B0C94600D0C9410
:100080000000EF92FF920F931F937B018C0120E001
:1000900030E040E05FE40E94410388238CF0C80117
:1000A000B70120E030E040E05FE40E94B9010E9427
:1000B000A1039B01AC01205030404040504806C095
:1000C000C801B7010E94A1039B01AC01B901CA019B
:1000D0001F910F91FF90EF900895A0E0B0E0E3E74B
:1000E000F0E00C94290DDC012B01FA019C91923077
:1000F00008F439C1EB018881823008F433C19430AF
:1001000069F4843009F02FC111969C91119789816F
:10011000981709F428C1A0E6B0E025C1843009F49D
:1001200021C18230A9F4923009F01DC19A01AD01BC
:1001300088E0EA010990AE01E90109929E0181502F
:10014000C1F7E201898111969C918923818308C1BD
:10015000923009F407C112962D903C901397EB0151
:100160008A819B811496AD90BD90CD90DC901797BD
:10017000EC80FD800E811F819101281B390BB90194
:1001800037FF04C066277727621B730B6032710547
:100190000CF061C0121613066CF537014801062EEB
:1001A00004C096948794779467940A94D2F721E0D8
:1001B00030E040E050E004C0220F331F441F551FC1
:1001C0006A95D2F721503040404050402E213F21C7
:1001D00040235123211531054105510521F021E02E
:1001E00030E040E050E079018A01E628F72808294C
:1001F00019293CC0232BD1F1260E371E35014601AB
:10020000062E04C096948794779467940A94D2F744
:1002100021E030E040E050E004C0220F331F441FD3
:10022000551F6A95D2F721503040404050402A2156
:100230003B214C215D21211531054105510521F05E
:1002400021E030E040E050E059016A01A628B728DB
:10025000C828D9280BC0821593052CF01C01AA24AC
:10026000BB24650103C0EE24FF24870111969C91F5
:10027000D20111968C91981709F445C0992339F051
:10028000A80197012A193B094C095D0906C0A6017E
:1002900095012E193F09400B510B57FD08C01182E3
:1002A0003382228224833583468357831DC081E0B5
:1002B00081833382228288279927DC01821B930B5A
:1002C000A40BB50B84839583A683B7830DC0220F3F
:1002D000331F441F551F24833583468357838281F0
:1002E000938101979383828324813581468157814D
:1002F000DA01C9010197A109B1098F5F9F4FAF4F83
:10030000BF4328F30BC0918333822282EA0CFB1C8B
:100310000C1D1D1DE482F5820683178383E0808314
:10032000248135814681578157FF1AC0C901AA2708
:1003300097FDA095BA2F81709070A070B0705695FF
:10034000479537952795822B932BA42BB52B848328
:100350009583A683B7838281938101969383828359
:10036000DF0101C0D201CD01CDB7DEB7E2E10C94CF
:10037000450DA0E2B0E0EFEBF1E00C94350D6983A0
:100380007A838B839C832D833E834F835887E9E058
:10039000EE2EF12CEC0EFD1ECE010196B7010E944F
:1003A000CA048E010F5E1F4FCE010596B8010E9450
:1003B000CA048A8991E089278A8BC701B801AE01F6
:1003C000475E5F4F0E946D000E94F503A096E6E035
:1003D0000C94510DA0E2B0E0E0EFF1E00C94350D8B
:1003E00069837A838B839C832D833E834F835887D5
:1003F000F9E0EF2EF12CEC0EFD1ECE010196B701B7
:100400000E94CA048E010F5E1F4FCE010596B801EF
:100410000E94CA04C701B801AE01475E5F4F0E9447
:100420006D000E94F503A096E6E00C94510DA0E249
:10043000B0E0EDE1F2E00C94290D69837A838B83BF
:100440009C832D833E834F835887CE010196BE0146
:10045000675F7F4F0E94CA04CE010596BE016F5EA2
:100460007F4F0E94CA049985923088F08989823032
:10047000C8F0943019F4823051F404C0843029F467
:10048000923081F480E690E0C6C0923049F420E0DA
:100490009A858A89981321E02A87CE010996BBC0E4
:1004A000823049F420E09A858A89981321E02A8BCA
:1004B000CE014196B0C02D843E844F8458886D880B
:1004C0007E888F88988CEE24FF248701AA24BB2481
:1004D000650140E050E060E070E0E0E0F0E0C10184
:1004E00081709070892BE9F0E60CF71C081D191D2E
:1004F0009A01AB012A0D3B1D4C1D5D1D80E090E073
:10050000A0E0B0E0E614F7040805190520F481E046
:1005100090E0A0E0B0E0BA01A901480F591F6A1F9E
:100520007B1FAA0CBB1CCC1CDD1C97FE08C081E005
:1005300090E0A0E0B0E0A82AB92ACA2ADB2A3196C6
:10054000E032F10549F0660C771C881C991C569422
:10055000479437942794C3CFFA85EA892B893C893D
:100560008B859C85280F391F2E5F3F4F17C0CA010E
:1005700081709070892B61F016950795F794E79438
:1005800080E090E0A0E0B0E8E82AF92A0A2B1B2BD3
:1005900076956795579547952F5F3F4F77FDE7CF46
:1005A0000CC0440F551F661F771F17FD4160EE0CEE
:1005B000FF1C001F111F21503040403090E05907B0
:1005C00090E0690790E4790760F32B8F3C8FDB01A3
:1005D000CA018F779070A070B07080349105A1052A
:1005E000B10561F447FD0AC0E114F10401051105EC
:1005F00029F0405C5F4F6F4F7F4F40781A8EFE1797
:1006000011F081E08A8F4D8F5E8F6F8F78A383E02A
:10061000898FCE0149960E94F503A096E2E10C94E1
:10062000450DA8E1B0E0E7E1F3E00C94350D6983F6
:100630007A838B839C832D833E834F83588789E005
:10064000E82EF12CEC0EFD1ECE010196B7010E94A2
:10065000CA048E010F5E1F4FCE010596B8010E949D
:10066000CA048985823040F08989823028F0C70128
:10067000B8010E94420501C08FEF6896E6E00C9435
:10068000510DA8E1B0E0E7E4F3E00C94350D698387
:100690007A838B839C832D833E834F83588789E0A5
:1006A000E82EF12CEC0EFD1ECE010196B7010E9442
:1006B000CA048E010F5E1F4FCE010596B8010E943D
:1006C000CA048985823040F08989823028F0C701C8
:1006D000B8010E94420501C08FEF6896E6E00C94D5
:1006E000510DA8E1B0E0E7E7F3E00C94350D698324
:1006F0007A838B839C832D833E834F83588789E045
:10070000E82EF12CEC0EFD1ECE010196B7010E94E1
:10071000CA048E010F5E1F4FCE010596B8010E94DC
:10072000CA048985823040F08989823028F0C70167
:10073000B8010E94420501C081E06896E6E00C9491
:10074000510DACE0B0E0E7EAF3E00C94390D6983B9
:100750007A838B839C83CE010196BE016B5F7F4FB2
:100760000E94CA048D81823061F1823050F1843060
:1007700021F48E81882351F12EC02F81388537FDD9
:1007800020C06E812F3131051CF06623F9F023C0A3
:100790008EE190E0821B930B29853A854B855C8521
:1007A00004C056954795379527958A95D2F76623C5
:1007B000B1F050954095309521953F4F4F4F5F4F89
:1007C0000EC020E030E040E050E009C02FEF3FEFE6
:1007D0004FEF5FE704C020E030E040E050E8B901AF
:1007E000CA012C96E2E00C94550DDF92EF92FF9235
:1007F0000F931F93FC01E480F58006811781D1805F
:100800008081823048F480E090E0A0E1B0E0E82A06
:10081000F92A0A2B1B2BA5C0843009F49FC0823013
:1008200021F4EE24FF24870105C0E114F104010541
:10083000110519F4E0E0F0E096C0628173819FEF4A
:10084000623879070CF05BC022E83FEF261B370BBC
:100850002A3131052CF020E030E040E050E02AC0A1
:10086000B801A701022E04C0769567955795479564
:100870000A94D2F781E090E0A0E0B0E004C0880FD5
:10088000991FAA1FBB1F2A95D2F70197A109B10989
:100890008E219F21A023B1230097A105B10521F04E
:1008A00081E090E0A0E0B0E09A01AB01282B392B69
:1008B0004A2B5B2BDA01C9018F779070A070B07062
:1008C00080349105A105B10539F427FF09C0205CEA
:1008D0003F4F4F4F5F4F04C0215C3F4F4F4F5F4F23
:1008E000E0E0F0E02030A0E03A07A0E04A07A0E412
:1008F0005A0710F0E1E0F0E079018A0127C0603882
:10090000710564F5FB01E158FF4FD801C7018F77EE
:100910009070A070B07080349105A105B10539F4D4
:10092000E7FE0DC080E490E0A0E0B0E004C08FE3FB
:1009300090E0A0E0B0E0E80EF91E0A1F1B1F17FFB1
:1009400005C016950795F794E794319687E01695BC
:100950000795F794E7948A95D1F705C0EE24FF2414
:100960008701EFEFF0E06E2F679566276795902F70
:100970009F77D794DD24D7948E2F8695492F462BC9
:10098000582F5D29B701CA011F910F91FF90EF9079
:10099000DF900895FC01DB01408151812281622FAB
:1009A0006F7770E0221F2227221F9381892F880FE3
:1009B000822B282F30E0991F9927991F11969C931D
:1009C000119721153105A9F54115510561057105ED
:1009D00011F482E037C082E89FEF13969C938E93C8
:1009E00012979A01AB0167E0220F331F441F551F76
:1009F0006A95D1F783E08C930DC0220F331F441FFB
:100A0000551F12968D919C911397019713969C9365
:100A10008E931297203080E0380780E0480780E40A
:100A2000580758F314962D933D934D935C93179765
:100A300008952F3F310579F4411551056105710580
:100A400019F484E08C93089564FF03C081E08C93D3
:100A500012C01C9210C02F57304013963C932E9317
:100A6000129783E08C9387E0440F551F661F771F12
:100A70008A95D1F7706414964D935D936D937C9332
:100A8000179708951F93DC01FB019C91923008F4A5
:100A900047C08081823008F443C0943051F41196ED
:100AA0001C91843099F58181682F70E0611B710978
:100AB0003FC0843021F0923031F48230B9F181812D
:100AC000882389F12DC011961C9111978230F1F085
:100AD00081811817D9F412962D913C911397828138
:100AE00093818217930794F028173907BCF0149666
:100AF0008D919D910D90BC91A02D248135814681D1
:100B00005781281739074A075B0718F4112341F06A
:100B10000AC082179307A407B50740F4112319F000
:100B200061E070E005C06FEF7FEF02C060E070E051
:100B3000CB011F910895DF93CF93CDB7DEB72F97E9
:100B40000FB6F894DEBF0FBECDBF8F8782E060E0A6
:100B500040E00E94390982E061E040E00E943909EA
:100B600080E06F850E944B0A82E062E041E00E94D3
:100B7000390980E090E0A0E0B0E48B879C87AD87E6
:100B8000BE876B857C858D859E8520E030E04AEFB1
:100B900054E40E941702DC01CB018F839887A98758
:100BA000BA876F81788589859A8520E030E040E8B2
:100BB0005FE30E94710388232CF481E090E09E8320
:100BC0008D833FC06F81788589859A8520E03FEFCE
:100BD0004FE757E40E94110318164CF56B857C858E
:100BE0008D859E8520E030E040E251E40E941702AE
:100BF000DC01CB01BC01CD010E944100DC01CB0135
:100C00009E838D830FC088EC90E09C838B838B81C7
:100C10009C810197F1F79C838B838D819E81019745
:100C20009E838D838D819E81009769F714C06F81AB
:100C3000788589859A850E944100DC01CB019E83DD
:100C40008D838D819E819A83898389819A81019781
:100C5000F1F79A83898382E062E040E00E943909DB
:100C60002F960FB6F894DEBF0FBECDBFCF91DF91A8
:100C70000895DF93CF93CDB7DEB72F970FB6F894D3
:100C8000DEBF0FBECDBF8F8782E060E041E00E94F3
:100C9000390982E061E040E00E94390980E06F8517
:100CA0000E944B0A82E062E041E00E94390980E044
:100CB00090E0A0E0B0E48B879C87AD87BE876B8512
:100CC0007C858D859E8520E030E04AEF54E40E94CB
:100CD0001702DC01CB018F839887A987BA876F81C0
:100CE000788589859A8520E030E040E85FE30E94BE
:100CF000710388232CF481E090E09E838D833FC0B4
:100D00006F81788589859A8520E03FEF4FE757E42A
:100D10000E94110318164CF56B857C858D859E8588
:100D200020E030E040E251E40E941702DC01CB01F8
:100D3000BC01CD010E944100DC01CB019E838D836B
:100D40000FC088EC90E09C838B838B819C81019702
:100D5000F1F79C838B838D819E8101979E838D8388
:100D60008D819E81009769F714C06F817885898590
:100D70009A850E944100DC01CB019E838D838D8189
:100D80009E819A83898389819A810197F1F79A8359
:100D9000898382E062E040E00E9439092F960FB615
:100DA000F894DEBF0FBECDBFCF91DF910895DF93E2
:100DB000CF9300D00F92CDB7DEB79B838A83198281
:100DC0000EC08981282F30E08A819B81FC01E20FCF
:100DD000F31F80810E94390689818F5F8983898111
:100DE000282F30E08A819B81FC01E20FF31F808174
:100DF000882339F78981803121F481E060E00E9405
:100E000007070F900F900F90CF91DF910895DF9318
:100E1000CF9300D00F92CDB7DEB78A836B83198250
:100E20008A81882319F48B81898306C08A81813065
:100E300019F48B81805C8983898180580E949B058D
:100E40000F900F900F90CF91DF910895DF93CF9384
:100E5000CDB7DEB72E970FB6F894DEBF0FBECDBF6D
:100E600080E090E0A0E2B2E48B879C87AD87BE87EC
:100E70006B857C858D859E8520E030E04AEF54E4CB
:100E80000E941702DC01CB018F839887A987BA875C
:100E90006F81788589859A8520E030E040E85FE3BE
:100EA0000E94710388232CF481E090E09E838D835F
:100EB0003FC06F81788589859A8520E03FEF4FE7B5
:100EC00057E40E94110318164CF56B857C858D85BF
:100ED0009E8520E030E040E251E40E941702DC01F0
:100EE000CB01BC01CD010E944100DC01CB019E83FE
:100EF0008D830FC088EC90E09C838B838B819C81D9
:100F00000197F1F79C838B838D819E8101979E834E
:100F10008D838D819E81009769F714C06F817885DC
:100F200089859A850E944100DC01CB019E838D83D7
:100F30008D819E819A83898389819A810197F1F7B6
:100F40009A8389838CE30E949B058CE00E949B0519
:100F500081E00E949B052E960FB6F894DEBF0FBE6F
:100F6000CDBFCF91DF910895DF93CF93CDB7DEB79B
:100F700027970FB6F894DEBF0FBECDBF9C838B833F
:100F80006D834E832F831A828D81882F90E0880F86
:100F9000991F880F991F880F991F8A838A81805C07
:100FA0000E949B0519820EC08981282F30E08B8119
:100FB0009C81FC01E20FF31F80810E943906898128
:100FC0008F5F89838981883078F38E816F810E9459
:100FD00007078D810E94390627960FB6F894DEBF69
:100FE0000FBECDBFCF91DF910895DF93CF93CDB7E3
:100FF000DEB765970FB6F894DEBF0FBECDBF698729
:101000007A878B879C872DB73EB73D8B2C8B898544
:101010009A85AB85BC850097A105B10521F480E3D5
:101020000E9439060CC18DB79EB79E878D871E82A0
:1010300089859A85AB85BC858A839B83AC83BD8378
:1010400015C08E818F5F8E838A819B81AC81BD812B
:101050002AE030E040E050E0BC01CD010E94070DE5
:10106000DA01C9018A839B83AC83BD838A819B811A
:10107000AC81BD810097A105B10519F78E81882F3C
:1010800090E02DB73EB7281B390B0FB6F8943EBF42
:101090000FBE2DBF8DB79EB701969A8B898B89891C
:1010A0009A8900969A8B898B29893A8938872F8368
:1010B0001982198231C089859A85AB85BC852AE061
:1010C00030E040E050E0BC01CD010E94070DDC01A2
:1010D000CB018A839B83AC83BD838981282F30E039
:1010E0004A818F819885FC01E20FF31F4083898537
:1010F0009A85AB85BC852AE030E040E050E0BC0139
:10110000CD010E94070DDA01C90189879A87AB8753
:10111000BC8789818F5F898399818E81981758F266
:1011200079C08981282F30E08F819885FC01E20FFA
:10113000F31F8081282F30E0388B2F878F85988987
:101140008430910509F44FC02F8538892530310549
:10115000D4F48F85988981309105C9F12F8538891C
:10116000223031052CF48F859889009761F152C0A7
:101170002F8538892230310571F18F859889833028
:10118000910569F147C02F85388927303105B9F1BC
:101190008F859889883091055CF42F8538892530B2
:1011A000310529F18F8598898630910521F132C06A
:1011B0002F8538892830310531F18F85988989301C
:1011C000910529F127C080E30E94390623C081E3FD
:1011D0000E9439061FC082E30E9439061BC083E3C8
:1011E0000E94390617C084E30E94390613C085E3C4
:1011F0000E9439060FC086E30E9439060BC087E3C0
:101200000E94390607C088E30E94390603C089E3BB
:101210000E94390699819B8B2B89222311F031E0A2
:101220003B8B8B89998191509983882309F079CFE1
:101230008D859E850FB6F8949EBF0FBE8DBF2C89FD
:101240003D890FB6F8943EBF0FBE2DBF65960FB611
:10125000F894DEBF0FBECDBFCF91DF910895DF932D
:10126000CF93CDB7DEB781E00E949B05CF91DF9190
:101270000895DF93CF93CDB7DEB728970FB6F894D4
:10128000DEBF0FBECDBF8A836B834C8319828B81F7
:10129000883008F0F4C08C81813009F072C08A81F6
:1012A000282F30E038872F838F81988581309105F2
:1012B00049F12F813885223031052CF48F819885B2
:1012C000009761F05BC02F8138852230310571F1C4
:1012D0008F81988583309105E9F150C0ABE3B0E090
:1012E000EBE3F0E08081482F8B81282F30E081E014
:1012F00090E0022E02C0880F991F0A94E2F7842B17
:101300008C93BFC0A8E3B0E0E8E3F0E08081482F11
:101310008B81282F30E081E090E0022E02C0880F00
:10132000991F0A94E2F7842B8C93ABC0A5E3B0E03D
:10133000E5E3F0E08081482F8B81282F30E081E0C9
:1013400090E0022E02C0880F991F0A94E2F7842BC6
:101350008C9397C0A2E3B0E0E2E3F0E08081482FF5
:101360008B81282F30E081E090E0022E02C0880FB0
:10137000991F0A94E2F7842B8C9383C081E08983C0
:1013800080C08C81882309F077C08A81282F30E0C3
:101390003E832D838D819E818130910559F12D8170
:1013A0003E81223031052CF48D819E81009769F0B9
:1013B00060C02D813E812230310589F18D819E8171
:1013C0008330910509F440C054C0ABE3B0E0EBE3D7
:1013D000F0E08081482F8B81282F30E081E090E081
:1013E000022E02C0880F991F0A94E2F78095842389
:1013F0008C9347C0A8E3B0E0E8E3F0E08081482F99
:101400008B81282F30E081E090E0022E02C0880F0F
:10141000991F0A94E2F7809584238C9332C0A5E348
:10142000B0E0E5E3F0E08081482F8B81282F30E0A9
:1014300081E090E0022E02C0880F991F0A94E2F723
:10144000809584238C931DC0A2E3B0E0E2E3F0E03A
:101450008081482F8B81282F30E081E090E0022EA0
:1014600002C0880F991F0A94E2F7809584238C9319
:1014700008C081E0898305C081E0898302C081E0E2
:101480008983898128960FB6F894DEBF0FBECDBF41
:10149000CF91DF910895DF93CF9300D000D00F92CA
:1014A000CDB7DEB78A836B8319828A81282F30E01B
:1014B0003D832C838C819D8181309105D1F02C81DD
:1014C0003D81223031052CF48C819D81009761F0A3
:1014D0001FC02C813D812230310581F08C819D819E
:1014E0008330910581F014C0EBE3F0E08B818083C1
:1014F00011C0E8E3F0E08B8180830CC0E5E3F0E00D
:101500008B81808307C0E2E3F0E08B81808302C09F
:1015100081E0898389810F900F900F900F900F9039
:10152000CF91DF910895DF93CF93CDB7DEB72797A3
:101530000FB6F894DEBF0FBECDBF8A836B835D8389
:101540004C8319828C819D81009709F478C08B812E
:10155000883008F074C08A81282F30E03F832E83C2
:101560004E815F814130510559F18E819F818230DA
:10157000910534F42E813F812115310569F05CC05D
:101580004E815F814230510579F18E819F81833098
:10159000910509F43DC050C0E9E3F0E08081282FB7
:1015A00030E08B81882F90E0A90102C055954795C6
:1015B0008A95E2F7CA018170EC81FD81808341C088
:1015C000E6E3F0E08081282F30E08B81882F90E0E7
:1015D000A90102C0559547958A95E2F7CA01817025
:1015E000EC81FD8180832DC0E3E3F0E08081282F32
:1015F00030E08B81882F90E0A90102C05595479576
:101600008A95E2F7CA018170EC81FD81808319C05F
:10161000E0E3F0E08081282F30E08B81882F90E09C
:10162000A90102C0559547958A95E2F7CA018170D4
:10163000EC81FD81808305C081E0898302C081E067
:101640008983898127960FB6F894DEBF0FBECDBF80
:10165000CF91DF910895DF93CF93CDB7DEB7289771
:101660000FB6F894DEBF0FBECDBF82E190E0A0E0E0
:10167000B0E08B839C83AD83BE831A8219821A8269
:1016800065C08A81882F90E0FC01E459FF4F90816A
:1016900081E0692F40E00E943909198244C08981A4
:1016A000882F90E0FC01E859FF4F90819E01295F4F
:1016B0003F4F81E0692FA9010E94930A8F818823FF
:1016C00079F58981482F50E08A81282F30E0CA01BE
:1016D000880F991F880F991F820F931FFC01E059F3
:1016E000FF4F8081882F90E0A0E0B0E08B839C8347
:1016F000AD83BE830FC08981882F90E0FC01E8593B
:10170000FF4F90819E01295F3F4F81E0692FA90122
:101710000E94930A8F81882371F38B8188871CC074
:1017200089818F5F89838981843008F4B8CF8A8169
:10173000882F90E0FC01E459FF4F908181E0692FF0
:1017400041E00E9439098A818F5F8A838A818430CF
:1017500008F497CF8B818887888528960FB6F894F0
:10176000DEBF0FBECDBFCF91DF910895DF93CF9342
:10177000CDB7DEB763970FB6F894DEBF0FBECDBF0F
:101780000E94C50C0E9426071E861F86188A198A89
:101790008E859F85A889B9898A879B87AC87BD87F5
:1017A0008A859B85AC85BD858E839F83A887B987F5
:1017B0008E819F81A885B9858A839B83AC83BD83F5
:1017C0000E942B0B898389818231D1F389818A30F0
:1017D00008F059C08981882F90E0A0E0B0E0BC01FA
:1017E000CD010E94F5078A859B85AC85BD85009754
:1017F000A105B10521F58A819B81AC81BD812AE0DB
:1018000030E040E050E0BC01CD010E94E80CDC017A
:10181000CB018A839B83AC83BD838981282F30E0F1
:1018200040E050E08A819B81AC81BD81820F931F93
:10183000A41FB51F8A839B83AC83BD83C1CF8E81D8
:101840009F81A885B9852AE030E040E050E0BC01E6
:10185000CD010E94E80CDC01CB018E839F83A88719
:10186000B9878981282F30E040E050E08E819F8148
:10187000A885B985820F931FA41FB51F8E839F83F0
:10188000A887B9879DCF8981882F90E0A0E0B0E03C
:101890008A879B87AC87BD878981282F30E03B8B67
:1018A0002A8B8A899B898D33910521F12A893B896D
:1018B0002E3331059CF48A899B898D32910509F478
:1018C0005CC02A893B892F32310509F44EC08A89D0
:1018D0009B898B32910509F454C072CF2A893B89C8
:1018E0002336310519F18A899B898837910509F4D6
:1018F00040C066CF2A813B814C815D818E819F8172
:10190000A885B985820F931FA41FB51F8E879F8757
:10191000A88BB98B8DE30E9439068E859F85A88997
:10192000B989BC01CD010E94F5074ACF0E942F0959
:101930001E861F86188A198A8E859F85A889B9896F
:101940008A879B87AC87BD878A859B85AC85BD854B
:101950008E839F83A887B9878E819F81A885B9854B
:101960008A839B83AC83BD832BCF8FE20E94390691
:1019700027CF88E70E94390623CF8DE20E943906DF
:101980001FCF8BE20E9439061BCFDF93CF93CDB7D9
:10199000DEB7EAE3F0E08FEF8083E7E3F0E08FE08B
:1019A0008083E4E3F0E087E08083E1E3F0E010820D
:1019B000EBE3F0E01082E8E3F0E08FEF8083E5E313
:1019C000F0E01082E2E3F0E01082CF91DF91089521
:1019D000629FD001739FF001829FE00DF11D649F13
:1019E000E00DF11D929FF00D839FF00D749FF00D9F
:1019F000659FF00D9927729FB00DE11DF91F639F40
:101A0000B00DE11DF91FBD01CF0111240895A1E220
:101A10001A2EAA1BBB1BFD010DC0AA1FBB1FEE1F68
:101A2000FF1FA217B307E407F50720F0A21BB30BB3
:101A3000E40BF50B661F771F881F991F1A9469F72F
:101A400060957095809590959B01AC01BD01CF018B
:101A500008952F923F924F925F926F927F928F9252
:101A60009F92AF92BF92CF92DF92EF92FF920F932D
:101A70001F93CF93DF93CDB7DEB7CA1BDB0B0FB637
:101A8000F894DEBF0FBECDBF09942A8839884888F4
:101A90005F846E847D848C849B84AA84B984C8848A
:101AA000DF80EE80FD800C811B81AA81B981CE0F81
:101AB000D11D0FB6F894DEBF0FBECDBFED01089566
:041AC000F894FFCFC8
:101AC40000000000000000000405060700010203F6
:101AD4000708092F040506780102032D63003D2B36
:00000001FF
