:100000000C942A000C94AB0D0C9447000C94470000
:100010000C9401120C94CE110C949B110C94681149
:100020000C9435110C9402110C94CF100C949C106C
:100030000C9447000C9447000C9447000C94470024
:100040000C9447000C9447000C9447000C94470014
:100050000C94470011241FBECFE5D8E0DEBFCDBF12
:1000600010E0A0E6B0E0EEE1F5E202C005900D92EE
:10007000AE37B107D9F710E0AEE7B0E001C01D928E
:10008000A63AB107E1F70E94FA0D0C948D120C9478
:100090000000EF92FF920F931F937B018C0120E0F1
:1000A00030E040E05FE40E94490388238CF0C801FF
:1000B000B70120E030E040E05FE40E94C1010E940F
:1000C000A9039B01AC01205030404040504806C07D
:1000D000C801B7010E94A9039B01AC01B901CA0183
:1000E0001F910F91FF90EF900895A0E0B0E0EBE733
:1000F000F0E00C945612DC012B01FA019C91923035
:1001000008F439C1EB018881823008F433C194309E
:1001100069F4843009F02FC111969C91119789815F
:10012000981709F428C1A6E7B0E025C1843009F486
:1001300021C18230A9F4923009F01DC19A01AD01AC
:1001400088E0EA010990AE01E90109929E0181501F
:10015000C1F7E201898111969C918923818308C1AD
:10016000923009F407C112962D903C901397EB0141
:100170008A819B811496AD90BD90CD90DC901797AD
:10018000EC80FD800E811F819101281B390BB90184
:1001900037FF04C066277727621B730B6032710537
:1001A0000CF061C0121613066CF537014801062EDB
:1001B00004C096948794779467940A94D2F721E0C8
:1001C00030E040E050E004C0220F331F441F551FB1
:1001D0006A95D2F721503040404050402E213F21B7
:1001E00040235123211531054105510521F021E01E
:1001F00030E040E050E079018A01E628F72808293C
:1002000019293CC0232BD1F1260E371E350146019A
:10021000062E04C096948794779467940A94D2F734
:1002200021E030E040E050E004C0220F331F441FC3
:10023000551F6A95D2F721503040404050402A2146
:100240003B214C215D21211531054105510521F04E
:1002500021E030E040E050E059016A01A628B728CB
:10026000C828D9280BC0821593052CF01C01AA249C
:10027000BB24650103C0EE24FF24870111969C91E5
:10028000D20111968C91981709F445C0992339F041
:10029000A80197012A193B094C095D0906C0A6016E
:1002A00095012E193F09400B510B57FD08C01182D3
:1002B0003382228224833583468357831DC081E0A5
:1002C00081833382228288279927DC01821B930B4A
:1002D000A40BB50B84839583A683B7830DC0220F2F
:1002E000331F441F551F24833583468357838281E0
:1002F000938101979383828324813581468157813D
:10030000DA01C9010197A109B1098F5F9F4FAF4F72
:10031000BF4328F30BC0918333822282EA0CFB1C7B
:100320000C1D1D1DE482F5820683178383E0808304
:10033000248135814681578157FF1AC0C901AA27F8
:1003400097FDA095BA2F81709070A070B0705695EF
:10035000479537952795822B932BA42BB52B848318
:100360009583A683B7838281938101969383828349
:10037000DF0101C0D201CD01CDB7DEB7E2E10C94BF
:100380007212A0E2B0E0E7ECF1E00C946212698333
:100390007A838B839C832D833E834F835887E9E048
:1003A000EE2EF12CEC0EFD1ECE010196B7010E943F
:1003B000D2048E010F5E1F4FCE010596B8010E9438
:1003C000D2048A8991E089278A8BC701B801AE01DE
:1003D000475E5F4F0E9475000E94FD03A096E6E015
:1003E0000C947E12A0E2B0E0E8EFF1E00C9462120F
:1003F00069837A838B839C832D833E834F835887C5
:10040000F9E0EF2EF12CEC0EFD1ECE010196B701A6
:100410000E94D2048E010F5E1F4FCE010596B801D7
:100420000E94D204C701B801AE01475E5F4F0E942F
:1004300075000E94FD03A096E6E00C947E12A0E2F7
:10044000B0E0E5E2F2E00C94561269837A838B8384
:100450009C832D833E834F835887CE010196BE0136
:10046000675F7F4F0E94D204CE010596BE016F5E8A
:100470007F4F0E94D2049985923088F0898982301A
:10048000C8F0943019F4823051F404C0843029F457
:10049000923081F486E790E0C6C0923049F420E0C3
:1004A0009A858A89981321E02A87CE010996BBC0D4
:1004B000823049F420E09A858A89981321E02A8BBA
:1004C000CE014196B0C02D843E844F8458886D88FB
:1004D0007E888F88988CEE24FF248701AA24BB2471
:1004E000650140E050E060E070E0E0E0F0E0C10174
:1004F00081709070892BE9F0E60CF71C081D191D1E
:100500009A01AB012A0D3B1D4C1D5D1D80E090E062
:10051000A0E0B0E0E614F7040805190520F481E036
:1005200090E0A0E0B0E0BA01A901480F591F6A1F8E
:100530007B1FAA0CBB1CCC1CDD1C97FE08C081E0F5
:1005400090E0A0E0B0E0A82AB92ACA2ADB2A3196B6
:10055000E032F10549F0660C771C881C991C569412
:10056000479437942794C3CFFA85EA892B893C892D
:100570008B859C85280F391F2E5F3F4F17C0CA01FE
:1005800081709070892B61F016950795F794E79428
:1005900080E090E0A0E0B0E8E82AF92A0A2B1B2BC3
:1005A00076956795579547952F5F3F4F77FDE7CF36
:1005B0000CC0440F551F661F771F17FD4160EE0CDE
:1005C000FF1C001F111F21503040403090E05907A0
:1005D00090E0690790E4790760F32B8F3C8FDB0193
:1005E000CA018F779070A070B07080349105A1051A
:1005F000B10561F447FD0AC0E114F10401051105DC
:1006000029F0405C5F4F6F4F7F4F40781A8EFE1786
:1006100011F081E08A8F4D8F5E8F6F8F78A383E01A
:10062000898FCE0149960E94FD03A096E2E10C94C9
:100630007212A8E1B0E0EFE1F3E00C94621269837A
:100640007A838B839C832D833E834F83588789E0F5
:10065000E82EF12CEC0EFD1ECE010196B7010E9492
:10066000D2048E010F5E1F4FCE010596B8010E9485
:10067000D2048985823040F08989823028F0C70110
:10068000B8010E944A0501C08FEF6896E6E00C941D
:100690007E12A8E1B0E0EFE4F3E00C94621269830B
:1006A0007A838B839C832D833E834F83588789E095
:1006B000E82EF12CEC0EFD1ECE010196B7010E9432
:1006C000D2048E010F5E1F4FCE010596B8010E9425
:1006D000D2048985823040F08989823028F0C701B0
:1006E000B8010E944A0501C08FEF6896E6E00C94BD
:1006F0007E12A8E1B0E0EFE7F3E00C9462126983A8
:100700007A838B839C832D833E834F83588789E034
:10071000E82EF12CEC0EFD1ECE010196B7010E94D1
:10072000D2048E010F5E1F4FCE010596B8010E94C4
:10073000D2048985823040F08989823028F0C7014F
:10074000B8010E944A0501C081E06896E6E00C9479
:100750007E12ACE0B0E0EFEAF3E00C94661269833D
:100760007A838B839C83CE010196BE016B5F7F4FA2
:100770000E94D2048D81823061F1823050F1843048
:1007800021F48E81882351F12EC02F81388537FDC9
:1007900020C06E812F3131051CF06623F9F023C093
:1007A0008EE190E0821B930B29853A854B855C8511
:1007B00004C056954795379527958A95D2F76623B5
:1007C000B1F050954095309521953F4F4F4F5F4F79
:1007D0000EC020E030E040E050E009C02FEF3FEFD6
:1007E0004FEF5FE704C020E030E040E050E8B9019F
:1007F000CA012C96E2E00C948212DF92EF92FF92F3
:100800000F931F93FC01E480F58006811781D1804E
:100810008081823048F480E090E0A0E1B0E0E82AF6
:10082000F92A0A2B1B2BA5C0843009F49FC0823003
:1008300021F4EE24FF24870105C0E114F104010531
:10084000110519F4E0E0F0E096C0628173819FEF3A
:10085000623879070CF05BC022E83FEF261B370BAC
:100860002A3131052CF020E030E040E050E02AC091
:10087000B801A701022E04C0769567955795479554
:100880000A94D2F781E090E0A0E0B0E004C0880FC5
:10089000991FAA1FBB1F2A95D2F70197A109B10979
:1008A0008E219F21A023B1230097A105B10521F03E
:1008B00081E090E0A0E0B0E09A01AB01282B392B59
:1008C0004A2B5B2BDA01C9018F779070A070B07052
:1008D00080349105A105B10539F427FF09C0205CDA
:1008E0003F4F4F4F5F4F04C0215C3F4F4F4F5F4F13
:1008F000E0E0F0E02030A0E03A07A0E04A07A0E402
:100900005A0710F0E1E0F0E079018A0127C0603871
:10091000710564F5FB01E158FF4FD801C7018F77DE
:100920009070A070B07080349105A105B10539F4C4
:10093000E7FE0DC080E490E0A0E0B0E004C08FE3EB
:1009400090E0A0E0B0E0E80EF91E0A1F1B1F17FFA1
:1009500005C016950795F794E794319687E01695AC
:100960000795F794E7948A95D1F705C0EE24FF2404
:100970008701EFEFF0E06E2F679566276795902F60
:100980009F77D794DD24D7948E2F8695492F462BB9
:10099000582F5D29B701CA011F910F91FF90EF9069
:1009A000DF900895FC01DB01408151812281622F9B
:1009B0006F7770E0221F2227221F9381892F880FD3
:1009C000822B282F30E0991F9927991F11969C930D
:1009D000119721153105A9F54115510561057105DD
:1009E00011F482E037C082E89FEF13969C938E93B8
:1009F00012979A01AB0167E0220F331F441F551F66
:100A00006A95D1F783E08C930DC0220F331F441FEA
:100A1000551F12968D919C911397019713969C9355
:100A20008E931297203080E0380780E0480780E4FA
:100A3000580758F314962D933D934D935C93179755
:100A400008952F3F310579F4411551056105710570
:100A500019F484E08C93089564FF03C081E08C93C3
:100A600012C01C9210C02F57304013963C932E9307
:100A7000129783E08C9387E0440F551F661F771F02
:100A80008A95D1F7706414964D935D936D937C9322
:100A9000179708951F93DC01FB019C91923008F495
:100AA00047C08081823008F443C0943051F41196DD
:100AB0001C91843099F58181682F70E0611B710968
:100AC0003FC0843021F0923031F48230B9F181811D
:100AD000882389F12DC011961C9111978230F1F075
:100AE00081811817D9F412962D913C911397828128
:100AF00093818217930794F028173907BCF0149656
:100B00008D919D910D90BC91A02D248135814681C0
:100B10005781281739074A075B0718F4112341F05A
:100B20000AC082179307A407B50740F4112319F0F0
:100B300061E070E005C06FEF7FEF02C060E070E041
:100B4000CB011F910895DF93CF93CDB7DEB72F97D9
:100B50000FB6F894DEBF0FBECDBF8F8780E065E093
:100B600040E00E94BF0980E066E040E00E94BF09CB
:100B700082E06F850E94D10A80E067E041E00E9438
:100B8000BF0980E090E0A0E0B0E48B879C87AD8750
:100B9000BE876B857C858D859E8520E030E04AEFA1
:100BA00054E40E941F02DC01CB018F839887A98740
:100BB000BA876F81788589859A8520E030E040E8A2
:100BC0005FE30E94790388232CF481E090E09E8308
:100BD0008D833FC06F81788589859A8520E03FEFBE
:100BE0004FE757E40E94190318164CF56B857C8576
:100BF0008D859E8520E030E040E251E40E941F0296
:100C0000DC01CB01BC01CD010E944900DC01CB011C
:100C10009E838D830FC088EC90E09C838B838B81B7
:100C20009C810197F1F79C838B838D819E81019735
:100C30009E838D838D819E81009769F714C06F819B
:100C4000788589859A850E944900DC01CB019E83C5
:100C50008D838D819E819A83898389819A81019771
:100C6000F1F79A83898380E067E040E00E94BF0942
:100C70002F960FB6F894DEBF0FBECDBFCF91DF9198
:100C80000895DF93CF93CDB7DEB72F970FB6F894C3
:100C9000DEBF0FBECDBF8F8780E065E041E00E94E0
:100CA000BF0980E066E040E00E94BF0982E06F85F6
:100CB0000E94D10A80E067E041E00E94BF0980E025
:100CC00090E0A0E0B0E48B879C87AD87BE876B8502
:100CD0007C858D859E8520E030E04AEF54E40E94BB
:100CE0001F02DC01CB018F839887A987BA876F81A8
:100CF000788589859A8520E030E040E85FE30E94AE
:100D0000790388232CF481E090E09E838D833FC09B
:100D10006F81788589859A8520E03FEF4FE757E41A
:100D20000E94190318164CF56B857C858D859E8570
:100D300020E030E040E251E40E941F02DC01CB01E0
:100D4000BC01CD010E944900DC01CB019E838D8353
:100D50000FC088EC90E09C838B838B819C810197F2
:100D6000F1F79C838B838D819E8101979E838D8378
:100D70008D819E81009769F714C06F817885898580
:100D80009A850E944900DC01CB019E838D838D8171
:100D90009E819A83898389819A810197F1F79A8349
:100DA000898380E067E040E00E94BF092F960FB67C
:100DB000F894DEBF0FBECDBFCF91DF910895DF93D2
:100DC000CF9300D00F92CDB7DEB79B838A83198271
:100DD0000EC08981282F30E08A819B81FC01E20FBF
:100DE000F31F80810E94410689818F5F89838981F9
:100DF000282F30E08A819B81FC01E20FF31F808164
:100E0000882339F70F900F900F90CF91DF910895BD
:100E1000DF93CF9300D00F92CDB7DEB78A836B8379
:100E200019828A81882319F48B81898306C08A817B
:100E3000813019F48B81805C8983898180580E947C
:100E4000A3050F900F900F90CF91DF910895DF933E
:100E5000CF93CDB7DEB72E970FB6F894DEBF0FBE97
:100E6000CDBF80E090E0A0E2B2E48B879C87AD87A5
:100E7000BE876B857C858D859E8520E030E04AEFBE
:100E800054E40E941F02DC01CB018F839887A9875D
:100E9000BA876F81788589859A8520E030E040E8BF
:100EA0005FE30E94790388232CF481E090E09E8325
:100EB0008D833FC06F81788589859A8520E03FEFDB
:100EC0004FE757E40E94190318164CF56B857C8593
:100ED0008D859E8520E030E040E251E40E941F02B3
:100EE000DC01CB01BC01CD010E944900DC01CB013A
:100EF0009E838D830FC088EC90E09C838B838B81D5
:100F00009C810197F1F79C838B838D819E81019752
:100F10009E838D838D819E81009769F714C06F81B8
:100F2000788589859A850E944900DC01CB019E83E2
:100F30008D838D819E819A83898389819A8101978E
:100F4000F1F79A8389838CE30E94A3058CE00E94C9
:100F5000A30581E00E94A3052E960FB6F894DEBF8C
:100F60000FBECDBFCF91DF910895DF93CF93CDB763
:100F7000DEB727970FB6F894DEBF0FBECDBF9C83B8
:100F80008B836D834E832F831A828D81882F90E00F
:100F9000880F991F880F991F880F991F8A838A814C
:100FA000805C0E94A30519820EC08981282F30E041
:100FB0008B819C81FC01E20FF31F80810E9441061E
:100FC00089818F5F89838981883078F38E816F81F1
:100FD0000E9408078D810E94410627960FB6F8945B
:100FE000DEBF0FBECDBFCF91DF910895DF93CF93CA
:100FF000CDB7DEB765970FB6F894DEBF0FBECDBF95
:101000006A877B878C879D872DB73EB73D8B2C8B5E
:101010008A859B85AC85BD850097A105B10521F426
:1010200080E30E94410613C18DB79EB79F878E87CC
:101030001F821E821D828A859B85AC85BD85898322
:101040009A83AB83BC838D818F5F8D8389819A81E5
:10105000AB81BC812AE030E040E050E0BC01CD0132
:101060000E943412DA01C90189839A83AB83BC835D
:1010700089819A81AB81BC810097A105B10519F7DF
:101080008D81882F90E02DB73EB7281B390B0FB606
:10109000F8943EBF0FBE2DBF8DB79EB701969B8BB8
:1010A0008A8B8A899B8900969B8B8A8B2A893B89AC
:1010B000398728872EC08A859B85AC85BD852AE027
:1010C00030E040E050E0BC01CD010E943412DC0170
:1010D000CB018F838E81282F30E088859985FC0194
:1010E000E20FF31F8F8180838E818F5F8E838A85CD
:1010F0009B85AC85BD852AE030E040E050E0BC0136
:10110000CD010E943412DA01C9018A879B87AC871E
:10111000BD878A859B85AC85BD850097A105B105F6
:1011200021F09E818D81981730F28D8181508D83C1
:101130001E8281C08D81282F30E08E81882F90E023
:10114000281B390B88859985FC01E20FF31F8081EC
:10115000282F30E0398B288B888999898430910534
:1011600009F44FC02889398925303105D4F488899C
:10117000998981309105C9F1288939892230310551
:101180002CF488899989009761F152C0288939899E
:101190002230310571F1888999898330910569F18F
:1011A00047C02889398927303105B9F1888999895B
:1011B000883091055CF4288939892530310529F179
:1011C000888999898630910521F132C02889398929
:1011D0002830310531F1888999898930910529F1C3
:1011E00027C080E30E94410623C081E30E9441069C
:1011F0001FC082E30E9441061BC083E30E94410698
:1012000017C084E30E94410613C085E30E94410693
:101210000FC086E30E9441060BC087E30E9441068F
:1012200007C088E30E94410603C089E30E9441068B
:101230008E818F5F8E839E818D81891708F07ACF92
:101240002E853F850FB6F8943EBF0FBE2DBF8C890B
:101250009D890FB6F8949EBF0FBE8DBF65960FB6E1
:10126000F894DEBF0FBECDBFCF91DF910895DF931D
:10127000CF93CDB7DEB72E970FB6F894DEBF0FBE73
:10128000CDBF81E00E94A30580E090E0A0E2B1E440
:101290008B879C87AD87BE876B857C858D859E857A
:1012A00020E030E04AEF54E40E941F02DC01CB0151
:1012B0008F839887A987BA876F81788589859A8572
:1012C00020E030E040E85FE30E94790388232CF4BB
:1012D00081E090E09E838D833FC06F817885898512
:1012E0009A8520E03FEF4FE757E40E941903181654
:1012F0004CF56B857C858D859E8520E030E040E255
:1013000051E40E941F02DC01CB01BC01CD010E940F
:101310004900DC01CB019E838D830FC088EC90E0F7
:101320009C838B838B819C810197F1F79C838B83BA
:101330008D819E8101979E838D838D819E810097F3
:1013400069F714C06F81788589859A850E94490064
:10135000DC01CB019E838D838D819E819A8389835D
:1013600089819A810197F1F79A8389832E960FB626
:10137000F894DEBF0FBECDBFCF91DF910895DF930C
:10138000CF93CDB7DEB728970FB6F894DEBF0FBE68
:10139000CDBF8A836B834C8319828B81883008F0A0
:1013A000F4C08C81813009F072C08A81282F30E02E
:1013B00038872F838F8198858130910549F12F815E
:1013C0003885223031052CF48F819885009761F0A3
:1013D0005BC02F8138852230310571F18F8198856E
:1013E00083309105E9F150C0ABE3B0E0EBE3F0E00E
:1013F0008081482F8B81282F30E081E090E0022E01
:1014000002C0880F991F0A94E2F7842B8C93BFC007
:10141000A8E3B0E0E8E3F0E08081482F8B81282F3B
:1014200030E081E090E0022E02C0880F991F0A94FC
:10143000E2F7842B8C93ABC0A5E3B0E0E5E3F0E0EA
:101440008081482F8B81282F30E081E090E0022EB0
:1014500002C0880F991F0A94E2F7842B8C9397C0DF
:10146000A2E3B0E0E2E3F0E08081482F8B81282FF7
:1014700030E081E090E0022E02C0880F991F0A94AC
:10148000E2F7842B8C9383C081E0898380C08C81B8
:10149000882309F077C08A81282F30E03E832D838E
:1014A0008D819E818130910559F12D813E812230BF
:1014B00031052CF48D819E81009769F060C02D81EB
:1014C0003E812230310589F18D819E8183309105E5
:1014D00009F440C054C0ABE3B0E0EBE3F0E080813E
:1014E000482F8B81282F30E081E090E0022E02C04F
:1014F000880F991F0A94E2F7809584238C9347C044
:10150000A8E3B0E0E8E3F0E08081482F8B81282F4A
:1015100030E081E090E0022E02C0880F991F0A940B
:10152000E2F7809584238C9332C0A5E3B0E0E5E335
:10153000F0E08081482F8B81282F30E081E090E01F
:10154000022E02C0880F991F0A94E2F78095842327
:101550008C931DC0A2E3B0E0E2E3F0E08081482F6D
:101560008B81282F30E081E090E0022E02C0880FAE
:10157000991F0A94E2F7809584238C9308C081E038
:10158000898305C081E0898302C081E089838981E4
:1015900028960FB6F894DEBF0FBECDBFCF91DF9176
:1015A0000895DF93CF9300D000D00F92CDB7DEB770
:1015B0008A836B8319828A81282F30E03D832C83B4
:1015C0008C819D8181309105D1F02C813D8122302B
:1015D00031052CF48C819D81009761F01FC02C8116
:1015E0003D812230310581F08C819D8183309105D0
:1015F00081F014C0EBE3F0E08B81808311C0E8E35D
:10160000F0E08B8180830CC0E5E3F0E08B81808388
:1016100007C0E2E3F0E08B81808302C081E0898330
:1016200089810F900F900F900F900F90CF91DF91C5
:101630000895DF93CF93CDB7DEB727970FB6F89411
:10164000DEBF0FBECDBF8A836B835D834C8319825F
:101650008C819D81009709F478C08B81883008F0D7
:1016600074C08A81282F30E03F832E834E815F81B2
:101670004130510559F18E819F818230910534F4BA
:101680002E813F812115310569F05CC04E815F815B
:101690004230510579F18E819F818330910509F4A3
:1016A0003DC050C0E9E3F0E08081282F30E08B811D
:1016B000882F90E0A90102C0559547958A95E2F7D9
:1016C000CA018170EC81FD81808341C0E6E3F0E0D6
:1016D0008081282F30E08B81882F90E0A90102C003
:1016E000559547958A95E2F7CA018170EC81FD8195
:1016F00080832DC0E3E3F0E08081282F30E08B81F0
:10170000882F90E0A90102C0559547958A95E2F788
:10171000CA018170EC81FD81808319C0E0E3F0E0B3
:101720008081282F30E08B81882F90E0A90102C0B2
:10173000559547958A95E2F7CA018170EC81FD8144
:10174000808305C081E0898302C081E0898389812B
:1017500027960FB6F894DEBF0FBECDBFCF91DF91B5
:101760000895DF93CF93CDB7DEB7A5E5B0E0E5E50B
:10177000F0E0808182608C93A5E5B0E0E5E5F0E0E3
:10178000808181608C93ABE5B0E0EBE5F0E0808197
:1017900080648C93CF91DF910895DF93CF93CDB781
:1017A000DEB7A5E5B0E0E5E5F0E080818B7F8C93C6
:1017B000A5E5B0E0E5E5F0E0808188608C93ABE5DD
:1017C000B0E0EBE5F0E080818F778C93CF91DF91F3
:1017D0000895DF93CF93CDB7DEB7A4E5B0E0E4E59D
:1017E000F0E0808180648C93ABE5B0E0EBE5F0E065
:1017F00080818F7D8C93CF91DF910895DF93CF937C
:1018000000D000D0CDB7DEB78A8385E089838A8196
:10181000282F30E03C832B838B819C818230910583
:1018200029F12B813C812330310534F48B819C815B
:101830008130910561F047C02B813C812330310517
:1018400021F18B819C818430910571F13CC0A5E52B
:10185000B0E0E5E5F0E080818D7F8C93A5E5B0E018
:10186000E5E5F0E080818E7F8C932FC0A5E5B0E0A8
:10187000E5E5F0E080818D7F8C93A5E5B0E0E5E5BE
:10188000F0E0808181608C9320C0A5E5B0E0E5E5C3
:10189000F0E0808182608C93A5E5B0E0E5E5F0E0C2
:1018A00080818E7F8C9311C0A5E5B0E0E5E5F0E086
:1018B000808182608C93A5E5B0E0E5E5F0E0808171
:1018C00081608C9302C081E0898389810F900F90A1
:1018D0000F900F90CF91DF910895DF93CF9300D0B9
:1018E00000D0CDB7DEB78A8385E089838A81282F2F
:1018F00030E03C832B838B819C818230910529F1E0
:101900002B813C812330310534F48B819C818130E3
:10191000910561F047C02B813C812330310521F1D5
:101920008B819C818430910571F13CC0A5E5B0E0CC
:10193000E5E5F0E080818B7F8C93A5E5B0E0E5E5FF
:10194000F0E08081877F8C932FC0A5E5B0E0E5E5CE
:10195000F0E0808184608C93A5E5B0E0E5E5F0E0FF
:101960008081877F8C9320C0A5E5B0E0E5E5F0E0BD
:1019700080818B7F8C93A5E5B0E0E5E5F0E0808188
:1019800088608C9311C0A5E5B0E0E5E5F0E08081CA
:1019900084608C93A5E5B0E0E5E5F0E080818860A7
:1019A0008C9302C081E0898389810F900F900F9002
:1019B0000F90CF91DF910895DF93CF9300D000D0A7
:1019C000CDB7DEB78A8385E089838A81282F30E00E
:1019D0003C832B838B819C818330910531F02B815B
:1019E0003C812430310549F010C0A4E5B0E0E4E5C5
:1019F000F0E080818F7B8C930AC0A4E5B0E0E4E541
:101A0000F0E0808180648C9302C081E089838981C9
:101A10000F900F900F900F90CF91DF910895DF936B
:101A2000CF9300D000D0CDB7DEB78A8385E089831D
:101A30008A81282F30E03C832B838B819C818230EC
:101A4000910591F02B813C8123303105A9F08B81E8
:101A50009C8181309105C1F4ABE5B0E0EBE5F0E0AD
:101A6000808180648C9312C0ABE5B0E0EBE5F0E0E0
:101A7000808180688C930AC0ABE5B0E0EBE5F0E0D4
:101A8000808180628C9302C081E0898389810F907C
:101A90000F900F900F90CF91DF910895DF93CF9328
:101AA00000D000D0CDB7DEB78A8385E089838A81F4
:101AB000282F30E03C832B838B819C8182309105E1
:101AC00091F02B813C8123303105A9F08B819C81E1
:101AD00081309105C1F4ABE5B0E0EBE5F0E0808149
:101AE0008F7B8C9312C0ABE5B0E0EBE5F0E080813A
:101AF0008F778C930AC0ABE5B0E0EBE5F0E0808136
:101B00008F7D8C9302C081E0898389810F900F9033
:101B10000F900F90CF91DF910895DF93CF9300D076
:101B20000F92CDB7DEB79B838A8385E089838A8154
:101B30009B81009739F08A819B8190937F008093ED
:101B40007E0002C082E0898389810F900F900F9000
:101B5000CF91DF9108951F920F920FB60F9211242B
:101B60002F933F934F935F936F937F938F939F93A5
:101B7000AF93BF93EF93FF93DF93CF93CDB7DEB7D0
:101B800080917E0090917F00009729F0E0917E0087
:101B9000F0917F000995CF91DF91FF91EF91BF9177
:101BA000AF919F918F917F916F915F914F913F91F5
:101BB0002F910F900FBE0F901F901895DF93CF932A
:101BC000CDB7DEB7AFE5B0E0EFE5F0E0808180684B
:101BD0008C93CF91DF910895DF93CF93CDB7DEB78C
:101BE000AFE5B0E0EFE5F0E080818F778C93CF91A7
:101BF000DF910895DF93CF93CDB7DEB70E946E0ECD
:101C000080E19EE00E948D0D81E00E940F0D0E94F8
:101C1000C50E0E9427070E94900E0E94DE0DFFCF86
:101C2000DF93CF93CDB7DEB780918400909185008C
:101C3000009729F480E090E00E943D0F43C080911E
:101C40008400909185008130910551F483E00E94D9
:101C5000FE0B0E94B90F909383008093820032C0E4
:101C600080918400909185008230910559F50E9401
:101C7000B90F909381008093800081E00E944E0D07
:101C800080E690E00E94DF068091820090918300C0
:101C9000CC01A0E0B0E0BC01CD010E94F60781E0DC
:101CA00060E00E9408078DE690E00E94DF068091C8
:101CB000800090918100CC01A0E0B0E0BC01CD019A
:101CC0000E94F60780918400909185000196909380
:101CD000850080938400CF91DF910895DF93CF93A7
:101CE000CDB7DEB7EAE3F0E080EE8083E7E3F0E033
:101CF00088E08083E4E3F0E08FEF8083E1E3F0E0CD
:101D00001082EBE3F0E01082E8E3F0E01082E5E31C
:101D1000F0E01082E2E3F0E01082CF91DF910895CD
:101D2000DF93CF93CDB7DEB7A3E5B0E0E3E5F0E016
:101D3000808180648C93A3E5B0E0E3E5F0E08081EE
:101D400088608C93A3E5B0E0E3E5F0E080818F7ECE
:101D50008C93A3E5B0E0E3E5F0E0808180628C93B2
:101D6000ECE5F0E080E48083A3E5B0E0E3E5F0E0BB
:101D70008081887F8C93A3E5B0E0E3E5F0E080818B
:101D800082608C93CF91DF910895DF93CF93CDB78D
:101D9000DEB7AFE4B0E0EFE4F0E080818E7F8C93BB
:101DA000AFE4B0E0EFE4F0E080818D7F8C93AEE4AF
:101DB000B0E0EEE4F0E08081877F8C93AEE4B0E0A9
:101DC000EEE4F0E080818F7E8C93ECE4F0E0118211
:101DD0001082A9E5B0E0E9E5F0E080818B7F8C938B
:101DE000AEE4B0E0EEE4F0E08081887F8C93AEE476
:101DF000B0E0EEE4F0E0808182608C93CF91DF91DF
:101E00000895DF93CF93CDB7DEB7A5E4B0E0E5E466
:101E1000F0E080818F7B8C93A5E4B0E0E5E4F0E016
:101E2000808188608C93E3E4F0E08DE78083A9E50E
:101E3000B0E0E9E5F0E0808180688C93A5E4B0E053
:101E4000E5E4F0E08081887F8C93A5E4B0E0E5E4F0
:101E5000F0E0808183608C93CF91DF910895DF93D0
:101E6000CF930F92CDB7DEB78983E2E5F0E08981A9
:101E700080830F90CF91DF910895DF93CF9300D0AF
:101E8000CDB7DEB79A838983ECE4F0E089819A814B
:101E9000918380830F900F90CF91DF910895DF930E
:101EA000CF930F92CDB7DEB78983E4E4F0E0898168
:101EB00080830F90CF91DF910895DF93CF930F929E
:101EC000CDB7DEB78983ECE5F0E0898180830F90A0
:101ED000CF91DF910895DF93CF9300D0CDB7DEB7D8
:101EE0009A838983EAE4F0E089819A8191838083EF
:101EF0000F900F90CF91DF910895DF93CF9300D093
:101F0000CDB7DEB79A838983E8E4F0E089819A81CE
:101F1000918380830F900F90CF91DF910895DF938D
:101F2000CF930F92CDB7DEB78983E3E4F0E08981E8
:101F300080830F90CF91DF910895DF93CF9300D0EE
:101F4000CDB7DEB79A838983E6E4F0E089819A8190
:101F5000918380830F900F90CF91DF910895DF934D
:101F6000CF93CDB7DEB7E2E5F0E08081CF91DF918E
:101F70000895DF93CF93CDB7DEB7ECE4F0E0808136
:101F80009181CF91DF910895DF93CF93CDB7DEB7E5
:101F9000E4E4F0E08081CF91DF910895DF93CF9367
:101FA00000D0CDB7DEB79A838983EAE4F0E0898177
:101FB0009A81918380830F900F90CF91DF91089544
:101FC000DF93CF93CDB7DEB7AEE4B0E0EEE4F0E060
:101FD000808180648C93A9E5B0E0E9E5F0E0808140
:101FE00080628C93CF91DF910895DF93CF9300D0DF
:101FF000CDB7DEB78A8385E089838A81813041F459
:10200000AEE4B0E0EEE4F0E0808180648C930DC03B
:102010008A81882341F4AEE4B0E0EEE4F0E0808110
:102020008F7B8C9302C081E0898389810F900F9010
:10203000CF91DF910895DF93CF93CDB7DEB7A9E5B8
:10204000B0E0E9E5F0E0808180628C93CF91DF9190
:102050000895DF93CF93CDB7DEB7A9E5B0E0E9E50A
:10206000F0E080818F7D8C93CF91DF910895DF9395
:10207000CF93CDB7DEB7E6E4F0E080819181CF91D8
:10208000DF910895DF93CF93CDB7DEB7A1E4B0E041
:10209000E1E4F0E08081887F8C93A1E4B0E0E1E4AA
:1020A000F0E0808186608C93CF91DF910895DF937B
:1020B000CF93CDB7DEB7A1E4B0E0E1E4F0E08081FA
:1020C00088608C93CF91DF910895DF93CF93CDB744
:1020D000DEB7A1E4B0E0E1E4F0E0808188618C93B8
:1020E000E1E4F0E01082CF91DF910895DF93CF9388
:1020F00000D000D0CDB7DEB79B838A836C8385E0A8
:1021000089838A819B81009769F08C81882F90E078
:10211000880F991FFC01EA57FF4F8A819B819183A9
:10212000808302C082E0898389810F900F900F9095
:102130000F90CF91DF9108951F920F920FB60F92DB
:1021400011242F933F934F935F936F937F938F93BC
:102150009F93AF93BF93EF93FF93DF93CF93CDB74D
:10216000DEB780919C0090919D00009729F0E0914E
:102170009C00F0919D000995CF91DF91FF91EF9127
:10218000BF91AF919F918F917F916F915F914F918F
:102190003F912F910F900FBE0F901F9018951F9297
:1021A0000F920FB60F9211242F933F934F935F938B
:1021B0006F937F938F939F93AF93BF93EF93FF930F
:1021C000DF93CF93CDB7DEB780919A0090919B00BB
:1021D000009729F0E0919A00F0919B000995CF912A
:1021E000DF91FF91EF91BF91AF919F918F917F917F
:1021F0006F915F914F913F912F910F900FBE0F9074
:102200001F9018951F920F920FB60F9211242F93C3
:102210003F934F935F936F937F938F939F93AF936E
:10222000BF93EF93FF93DF93CF93CDB7DEB780914A
:10223000980090919900009729F0E0919800F09112
:1022400099000995CF91DF91FF91EF91BF91AF91E7
:102250009F918F917F916F915F914F913F912F91BE
:102260000F900FBE0F901F9018951F920F920FB6F0
:102270000F9211242F933F934F935F936F937F930C
:102280008F939F93AF93BF93EF93FF93DF93CF937E
:10229000CDB7DEB78091960090919700009729F016
:1022A000E0919600F09197000995CF91DF91FF9111
:1022B000EF91BF91AF919F918F917F916F915F91BE
:1022C0004F913F912F910F900FBE0F901F90189537
:1022D0001F920F920FB60F9211242F933F934F939B
:1022E0005F936F937F938F939F93AF93BF93EF937E
:1022F000FF93DF93CF93CDB7DEB780919400909199
:102300009500009729F0E0919400F09195000995CF
:10231000CF91DF91FF91EF91BF91AF919F918F91FD
:102320007F916F915F914F913F912F910F900FBED1
:102330000F901F9018951F920F920FB60F921124B5
:102340002F933F934F935F936F937F938F939F93BD
:10235000AF93BF93EF93FF93DF93CF93CDB7DEB7E8
:102360008091920090919300009729F0E091920063
:10237000F09193000995CF91DF91FF91EF91BF917B
:10238000AF919F918F917F916F915F914F913F910D
:102390002F910F900FBE0F901F9018951F920F92C4
:1023A0000FB60F9211242F933F934F935F936F9328
:1023B0007F938F939F93AF93BF93EF93FF93DF939D
:1023C000CF93CDB7DEB780919000909191000097A8
:1023D00029F0E0919000F09191000995CF91DF9163
:1023E000FF91EF91BF91AF919F918F917F916F91ED
:1023F0005F914F913F912F910F900FBE0F901F90C3
:1024000018951F920F920FB60F9211242F933F939E
:102410004F935F936F937F938F939F93AF93BF93EC
:10242000EF93FF93DF93CF93CDB7DEB780918E000C
:1024300090918F00009729F0E0918E00F0918F002D
:102440000995CF91DF91FF91EF91BF91AF919F914E
:102450008F917F916F915F914F913F912F910F904D
:102460000FBE0F901F901895A1E21A2EAA1BBB1B3E
:10247000FD010DC0AA1FBB1FEE1FFF1FA217B30750
:10248000E407F50720F0A21BB30BE40BF50B661F66
:10249000771F881F991F1A9469F76095709580952A
:1024A00090959B01AC01BD01CF0108952F923F9201
:1024B0004F925F926F927F928F929F92AF92BF9254
:1024C000CF92DF92EF92FF920F931F93CF93DF9300
:1024D000CDB7DEB7CA1BDB0B0FB6F894DEBF0FBE5D
:1024E000CDBF09942A88398848885F846E847D84AA
:1024F0008C849B84AA84B984C884DF80EE80FD80AC
:102500000C811B81AA81B981CE0FD11D0FB6F89421
:0E251000DEBF0FBECDBFED010895F894FFCFE2
:10251E00506572696F642054696D653D004F6E2081
:0E252E0054696D653D000000000000000000D3
:00000001FF
