:100000000C942A000C9434000C9434000C943400AA
:100010000C9434000C9434000C9434000C94340090
:100020000C9434000C9434000C9434000C94340080
:100030000C9434000C9434000C9434000C94340070
:100040000C9434000C9434000C9434000C94340060
:100050000C94340011241FBECFE5D8E0DEBFCDBF25
:100060000E9427010C945E010C940000683008F097
:100070008EC0413009F042C08130B1F0813030F0A3
:10008000823001F1833009F082C02AC0EBE3F0E056
:10009000208181E090E002C0880F991F6A95E2F705
:1000A000282B208380E00895E8E3F0E0208181E0C0
:1000B00090E002C0880F991F6A95E2F7282B2083F1
:1000C00080E00895E5E3F0E0208181E090E002C067
:1000D000880F991F6A95E2F7282B208380E0089506
:1000E000E2E3F0E0208181E090E002C0880F991FF8
:1000F0006A95E2F7282B208380E00895442309F0D5
:1001000046C08130B9F0813030F0823011F1833057
:1001100009F03DC02DC0EBE3F0E0208181E090E0EC
:1001200002C0880F991F6A95E2F780958223808329
:1001300080E00895E8E3F0E0208181E090E002C0F3
:10014000880F991F6A95E2F780958223808380E06B
:100150000895E5E3F0E0208181E090E002C0880F9F
:10016000991F6A95E2F780958223808380E0089545
:10017000E2E3F0E0208181E090E002C0880F991F67
:100180006A95E2F780958223808380E0089581E07C
:100190000895813059F0813030F0823051F0833051
:1001A00059F081E008956BBB80E0089568BB80E062
:1001B000089565BB80E0089562BB80E00895FA0170
:1001C00041155105B9F16830A8F5813091F08130C1
:1001D00028F08230C9F0833069F521C089B390E0FE
:1001E00002C0959587956A95E2F78170808380E0DB
:1001F000089586B390E002C0959587956A95E2F7D9
:100200008170808380E0089583B390E002C095956B
:1002100087956A95E2F78170808380E0089580B3C6
:1002200090E002C0959587956A95E2F7817080838A
:1002300080E0089581E008951ABA17BA87E084BB78
:1002400011BA1BBA18BA81E085BB12BA08950F9390
:100250001F93CF93DF930E941C0100E117E2C8ECCB
:10026000D0E082E060E041E00E94360082E061E0A0
:1002700040E00E94360082E062E040E00E943600EA
:100280009801CE010197F1F721503040D1F782E07B
:1002900060E040E00E94360082E061E041E00E94C0
:1002A000360082E062E041E00E9436009801CE0113
:1002B0000197F1F721503040D1F7D3CFF894FFCF19
:00000001FF
