:100000000C942A000C9447000C9447000C94470071
:100010000C9447000C9447000C9447000C94470044
:100020000C9447000C9447000C9447000C94470034
:100030000C9447000C94570E0C9447000C94A90E96
:100040000C9447000C9447000C9447000C94470014
:100050000C94470011241FBECFE5D8E0DEBFCDBF12
:1000600010E0A0E6B0E0EEEBFEE102C005900D92DC
:10007000A037B107D9F710E0A0E7B0E001C01D92AA
:10008000A937B107E1F70E94D20B0C945D0F0C94D5
:100090000000EF92FF920F931F937B018C0120E0F1
:1000A00030E040E05FE40E94490388238CF0C801FF
:1000B000B70120E030E040E05FE40E94C1010E940F
:1000C000A9039B01AC01205030404040504806C07D
:1000D000C801B7010E94A9039B01AC01B901CA0183
:1000E0001F910F91FF90EF900895A0E0B0E0EBE733
:1000F000F0E00C94260FDC012B01FA019C91923068
:1001000008F439C1EB018881823008F433C194309E
:1001100069F4843009F02FC111969C91119789815F
:10012000981709F428C1A0E6B0E025C1843009F48D
:1001300021C18230A9F4923009F01DC19A01AD01AC
:1001400088E0EA010990AE01E90109929E0181501F
:10015000C1F7E201898111969C918923818308C1AD
:10016000923009F407C112962D903C901397EB0141
:100170008A819B811496AD90BD90CD90DC901797AD
:10018000EC80FD800E811F819101281B390BB90184
:1001900037FF04C066277727621B730B6032710537
:1001A0000CF061C0121613066CF537014801062EDB
:1001B00004C096948794779467940A94D2F721E0C8
:1001C00030E040E050E004C0220F331F441F551FB1
:1001D0006A95D2F721503040404050402E213F21B7
:1001E00040235123211531054105510521F021E01E
:1001F00030E040E050E079018A01E628F72808293C
:1002000019293CC0232BD1F1260E371E350146019A
:10021000062E04C096948794779467940A94D2F734
:1002200021E030E040E050E004C0220F331F441FC3
:10023000551F6A95D2F721503040404050402A2146
:100240003B214C215D21211531054105510521F04E
:1002500021E030E040E050E059016A01A628B728CB
:10026000C828D9280BC0821593052CF01C01AA249C
:10027000BB24650103C0EE24FF24870111969C91E5
:10028000D20111968C91981709F445C0992339F041
:10029000A80197012A193B094C095D0906C0A6016E
:1002A00095012E193F09400B510B57FD08C01182D3
:1002B0003382228224833583468357831DC081E0A5
:1002C00081833382228288279927DC01821B930B4A
:1002D000A40BB50B84839583A683B7830DC0220F2F
:1002E000331F441F551F24833583468357838281E0
:1002F000938101979383828324813581468157813D
:10030000DA01C9010197A109B1098F5F9F4FAF4F72
:10031000BF4328F30BC0918333822282EA0CFB1C7B
:100320000C1D1D1DE482F5820683178383E0808304
:10033000248135814681578157FF1AC0C901AA27F8
:1003400097FDA095BA2F81709070A070B0705695EF
:10035000479537952795822B932BA42BB52B848318
:100360009583A683B7838281938101969383828349
:10037000DF0101C0D201CD01CDB7DEB7E2E10C94BF
:10038000420FA0E2B0E0E7ECF1E00C94320F698399
:100390007A838B839C832D833E834F835887E9E048
:1003A000EE2EF12CEC0EFD1ECE010196B7010E943F
:1003B000D2048E010F5E1F4FCE010596B8010E9438
:1003C000D2048A8991E089278A8BC701B801AE01DE
:1003D000475E5F4F0E9475000E94FD03A096E6E015
:1003E0000C944E0FA0E2B0E0E8EFF1E00C94320F75
:1003F00069837A838B839C832D833E834F835887C5
:10040000F9E0EF2EF12CEC0EFD1ECE010196B701A6
:100410000E94D2048E010F5E1F4FCE010596B801D7
:100420000E94D204C701B801AE01475E5F4F0E942F
:1004300075000E94FD03A096E6E00C944E0FA0E22A
:10044000B0E0E5E2F2E00C94260F69837A838B83B7
:100450009C832D833E834F835887CE010196BE0136
:10046000675F7F4F0E94D204CE010596BE016F5E8A
:100470007F4F0E94D2049985923088F0898982301A
:10048000C8F0943019F4823051F404C0843029F457
:10049000923081F480E690E0C6C0923049F420E0CA
:1004A0009A858A89981321E02A87CE010996BBC0D4
:1004B000823049F420E09A858A89981321E02A8BBA
:1004C000CE014196B0C02D843E844F8458886D88FB
:1004D0007E888F88988CEE24FF248701AA24BB2471
:1004E000650140E050E060E070E0E0E0F0E0C10174
:1004F00081709070892BE9F0E60CF71C081D191D1E
:100500009A01AB012A0D3B1D4C1D5D1D80E090E062
:10051000A0E0B0E0E614F7040805190520F481E036
:1005200090E0A0E0B0E0BA01A901480F591F6A1F8E
:100530007B1FAA0CBB1CCC1CDD1C97FE08C081E0F5
:1005400090E0A0E0B0E0A82AB92ACA2ADB2A3196B6
:10055000E032F10549F0660C771C881C991C569412
:10056000479437942794C3CFFA85EA892B893C892D
:100570008B859C85280F391F2E5F3F4F17C0CA01FE
:1005800081709070892B61F016950795F794E79428
:1005900080E090E0A0E0B0E8E82AF92A0A2B1B2BC3
:1005A00076956795579547952F5F3F4F77FDE7CF36
:1005B0000CC0440F551F661F771F17FD4160EE0CDE
:1005C000FF1C001F111F21503040403090E05907A0
:1005D00090E0690790E4790760F32B8F3C8FDB0193
:1005E000CA018F779070A070B07080349105A1051A
:1005F000B10561F447FD0AC0E114F10401051105DC
:1006000029F0405C5F4F6F4F7F4F40781A8EFE1786
:1006100011F081E08A8F4D8F5E8F6F8F78A383E01A
:10062000898FCE0149960E94FD03A096E2E10C94C9
:10063000420FA8E1B0E0EFE1F3E00C94320F6983E0
:100640007A838B839C832D833E834F83588789E0F5
:10065000E82EF12CEC0EFD1ECE010196B7010E9492
:10066000D2048E010F5E1F4FCE010596B8010E9485
:10067000D2048985823040F08989823028F0C70110
:10068000B8010E944A0501C08FEF6896E6E00C941D
:100690004E0FA8E1B0E0EFE4F3E00C94320F698371
:1006A0007A838B839C832D833E834F83588789E095
:1006B000E82EF12CEC0EFD1ECE010196B7010E9432
:1006C000D2048E010F5E1F4FCE010596B8010E9425
:1006D000D2048985823040F08989823028F0C701B0
:1006E000B8010E944A0501C08FEF6896E6E00C94BD
:1006F0004E0FA8E1B0E0EFE7F3E00C94320F69830E
:100700007A838B839C832D833E834F83588789E034
:10071000E82EF12CEC0EFD1ECE010196B7010E94D1
:10072000D2048E010F5E1F4FCE010596B8010E94C4
:10073000D2048985823040F08989823028F0C7014F
:10074000B8010E944A0501C081E06896E6E00C9479
:100750004E0FACE0B0E0EFEAF3E00C94360F6983A3
:100760007A838B839C83CE010196BE016B5F7F4FA2
:100770000E94D2048D81823061F1823050F1843048
:1007800021F48E81882351F12EC02F81388537FDC9
:1007900020C06E812F3131051CF06623F9F023C093
:1007A0008EE190E0821B930B29853A854B855C8511
:1007B00004C056954795379527958A95D2F76623B5
:1007C000B1F050954095309521953F4F4F4F5F4F79
:1007D0000EC020E030E040E050E009C02FEF3FEFD6
:1007E0004FEF5FE704C020E030E040E050E8B9019F
:1007F000CA012C96E2E00C94520FDF92EF92FF9226
:100800000F931F93FC01E480F58006811781D1804E
:100810008081823048F480E090E0A0E1B0E0E82AF6
:10082000F92A0A2B1B2BA5C0843009F49FC0823003
:1008300021F4EE24FF24870105C0E114F104010531
:10084000110519F4E0E0F0E096C0628173819FEF3A
:10085000623879070CF05BC022E83FEF261B370BAC
:100860002A3131052CF020E030E040E050E02AC091
:10087000B801A701022E04C0769567955795479554
:100880000A94D2F781E090E0A0E0B0E004C0880FC5
:10089000991FAA1FBB1F2A95D2F70197A109B10979
:1008A0008E219F21A023B1230097A105B10521F03E
:1008B00081E090E0A0E0B0E09A01AB01282B392B59
:1008C0004A2B5B2BDA01C9018F779070A070B07052
:1008D00080349105A105B10539F427FF09C0205CDA
:1008E0003F4F4F4F5F4F04C0215C3F4F4F4F5F4F13
:1008F000E0E0F0E02030A0E03A07A0E04A07A0E402
:100900005A0710F0E1E0F0E079018A0127C0603871
:10091000710564F5FB01E158FF4FD801C7018F77DE
:100920009070A070B07080349105A105B10539F4C4
:10093000E7FE0DC080E490E0A0E0B0E004C08FE3EB
:1009400090E0A0E0B0E0E80EF91E0A1F1B1F17FFA1
:1009500005C016950795F794E794319687E01695AC
:100960000795F794E7948A95D1F705C0EE24FF2404
:100970008701EFEFF0E06E2F679566276795902F60
:100980009F77D794DD24D7948E2F8695492F462BB9
:10099000582F5D29B701CA011F910F91FF90EF9069
:1009A000DF900895FC01DB01408151812281622F9B
:1009B0006F7770E0221F2227221F9381892F880FD3
:1009C000822B282F30E0991F9927991F11969C930D
:1009D000119721153105A9F54115510561057105DD
:1009E00011F482E037C082E89FEF13969C938E93B8
:1009F00012979A01AB0167E0220F331F441F551F66
:100A00006A95D1F783E08C930DC0220F331F441FEA
:100A1000551F12968D919C911397019713969C9355
:100A20008E931297203080E0380780E0480780E4FA
:100A3000580758F314962D933D934D935C93179755
:100A400008952F3F310579F4411551056105710570
:100A500019F484E08C93089564FF03C081E08C93C3
:100A600012C01C9210C02F57304013963C932E9307
:100A7000129783E08C9387E0440F551F661F771F02
:100A80008A95D1F7706414964D935D936D937C9322
:100A9000179708951F93DC01FB019C91923008F495
:100AA00047C08081823008F443C0943051F41196DD
:100AB0001C91843099F58181682F70E0611B710968
:100AC0003FC0843021F0923031F48230B9F181811D
:100AD000882389F12DC011961C9111978230F1F075
:100AE00081811817D9F412962D913C911397828128
:100AF00093818217930794F028173907BCF0149656
:100B00008D919D910D90BC91A02D248135814681C0
:100B10005781281739074A075B0718F4112341F05A
:100B20000AC082179307A407B50740F4112319F0F0
:100B300061E070E005C06FEF7FEF02C060E070E041
:100B4000CB011F910895DF93CF93CDB7DEB72F97D9
:100B50000FB6F894DEBF0FBECDBF8F8780E065E093
:100B600040E00E94BF0980E066E040E00E94BF09CB
:100B700083E06F850E94D10A80E067E041E00E9437
:100B8000BF0980E090E0A0E0B0E48B879C87AD8750
:100B9000BE876B857C858D859E8520E030E04AEFA1
:100BA00054E40E941F02DC01CB018F839887A98740
:100BB000BA876F81788589859A8520E030E040E8A2
:100BC0005FE30E94790388232CF481E090E09E8308
:100BD0008D833FC06F81788589859A8520E03FEFBE
:100BE0004FE757E40E94190318164CF56B857C8576
:100BF0008D859E8520E030E040E251E40E941F0296
:100C0000DC01CB01BC01CD010E944900DC01CB011C
:100C10009E838D830FC088EC90E09C838B838B81B7
:100C20009C810197F1F79C838B838D819E81019735
:100C30009E838D838D819E81009769F714C06F819B
:100C4000788589859A850E944900DC01CB019E83C5
:100C50008D838D819E819A83898389819A81019771
:100C6000F1F79A83898380E067E040E00E94BF0942
:100C70002F960FB6F894DEBF0FBECDBFCF91DF9198
:100C80000895DF93CF93CDB7DEB72F970FB6F894C3
:100C9000DEBF0FBECDBF8F8780E065E041E00E94E0
:100CA000BF0980E066E040E00E94BF0983E06F85F5
:100CB0000E94D10A80E067E041E00E94BF0980E025
:100CC00090E0A0E0B0E48B879C87AD87BE876B8502
:100CD0007C858D859E8520E030E04AEF54E40E94BB
:100CE0001F02DC01CB018F839887A987BA876F81A8
:100CF000788589859A8520E030E040E85FE30E94AE
:100D0000790388232CF481E090E09E838D833FC09B
:100D10006F81788589859A8520E03FEF4FE757E41A
:100D20000E94190318164CF56B857C858D859E8570
:100D300020E030E040E251E40E941F02DC01CB01E0
:100D4000BC01CD010E944900DC01CB019E838D8353
:100D50000FC088EC90E09C838B838B819C810197F2
:100D6000F1F79C838B838D819E8101979E838D8378
:100D70008D819E81009769F714C06F817885898580
:100D80009A850E944900DC01CB019E838D838D8171
:100D90009E819A83898389819A810197F1F79A8349
:100DA000898380E067E040E00E94BF092F960FB67C
:100DB000F894DEBF0FBECDBFCF91DF910895DF93D2
:100DC000CF9300D00F92CDB7DEB79B838A83198271
:100DD0000EC08981282F30E08A819B81FC01E20FBF
:100DE000F31F80810E94410689818F5F89838981F9
:100DF000282F30E08A819B81FC01E20FF31F808164
:100E0000882339F70F900F900F90CF91DF910895BD
:100E1000DF93CF9300D00F92CDB7DEB78A836B8379
:100E200019828A81882319F48B81898306C08A817B
:100E3000813019F48B81805C8983898180580E947C
:100E4000A3050F900F900F90CF91DF910895DF933E
:100E5000CF93CDB7DEB72E970FB6F894DEBF0FBE97
:100E6000CDBF80E090E0A0E2B2E48B879C87AD87A5
:100E7000BE876B857C858D859E8520E030E04AEFBE
:100E800054E40E941F02DC01CB018F839887A9875D
:100E9000BA876F81788589859A8520E030E040E8BF
:100EA0005FE30E94790388232CF481E090E09E8325
:100EB0008D833FC06F81788589859A8520E03FEFDB
:100EC0004FE757E40E94190318164CF56B857C8593
:100ED0008D859E8520E030E040E251E40E941F02B3
:100EE000DC01CB01BC01CD010E944900DC01CB013A
:100EF0009E838D830FC088EC90E09C838B838B81D5
:100F00009C810197F1F79C838B838D819E81019752
:100F10009E838D838D819E81009769F714C06F81B8
:100F2000788589859A850E944900DC01CB019E83E2
:100F30008D838D819E819A83898389819A8101978E
:100F4000F1F79A8389838CE30E94A3058CE00E94C9
:100F5000A30581E00E94A3052E960FB6F894DEBF8C
:100F60000FBECDBFCF91DF910895DF93CF93CDB763
:100F7000DEB727970FB6F894DEBF0FBECDBF9C83B8
:100F80008B836D834E832F831A828D81882F90E00F
:100F9000880F991F880F991F880F991F8A838A814C
:100FA000805C0E94A30519820EC08981282F30E041
:100FB0008B819C81FC01E20FF31F80810E9441061E
:100FC00089818F5F89838981883078F38E816F81F1
:100FD0000E9408078D810E94410627960FB6F8945B
:100FE000DEBF0FBECDBFCF91DF910895DF93CF93CA
:100FF000CDB7DEB765970FB6F894DEBF0FBECDBF95
:101000006A877B878C879D872DB73EB73D8B2C8B5E
:101010008A859B85AC85BD850097A105B10521F426
:1010200080E30E94410613C18DB79EB79F878E87CC
:101030001F821E821D828A859B85AC85BD85898322
:101040009A83AB83BC838D818F5F8D8389819A81E5
:10105000AB81BC812AE030E040E050E0BC01CD0132
:101060000E94040FDA01C90189839A83AB83BC8390
:1010700089819A81AB81BC810097A105B10519F7DF
:101080008D81882F90E02DB73EB7281B390B0FB606
:10109000F8943EBF0FBE2DBF8DB79EB701969B8BB8
:1010A0008A8B8A899B8900969B8B8A8B2A893B89AC
:1010B000398728872EC08A859B85AC85BD852AE027
:1010C00030E040E050E0BC01CD010E94040FDC01A3
:1010D000CB018F838E81282F30E088859985FC0194
:1010E000E20FF31F8F8180838E818F5F8E838A85CD
:1010F0009B85AC85BD852AE030E040E050E0BC0136
:10110000CD010E94040FDA01C9018A879B87AC8751
:10111000BD878A859B85AC85BD850097A105B105F6
:1011200021F09E818D81981730F28D8181508D83C1
:101130001E8281C08D81282F30E08E81882F90E023
:10114000281B390B88859985FC01E20FF31F8081EC
:10115000282F30E0398B288B888999898430910534
:1011600009F44FC02889398925303105D4F488899C
:10117000998981309105C9F1288939892230310551
:101180002CF488899989009761F152C0288939899E
:101190002230310571F1888999898330910569F18F
:1011A00047C02889398927303105B9F1888999895B
:1011B000883091055CF4288939892530310529F179
:1011C000888999898630910521F132C02889398929
:1011D0002830310531F1888999898930910529F1C3
:1011E00027C080E30E94410623C081E30E9441069C
:1011F0001FC082E30E9441061BC083E30E94410698
:1012000017C084E30E94410613C085E30E94410693
:101210000FC086E30E9441060BC087E30E9441068F
:1012200007C088E30E94410603C089E30E9441068B
:101230008E818F5F8E839E818D81891708F07ACF92
:101240002E853F850FB6F8943EBF0FBE2DBF8C890B
:101250009D890FB6F8949EBF0FBE8DBF65960FB6E1
:10126000F894DEBF0FBECDBFCF91DF910895DF931D
:10127000CF93CDB7DEB72E970FB6F894DEBF0FBE73
:10128000CDBF81E00E94A30580E090E0A0E2B1E440
:101290008B879C87AD87BE876B857C858D859E857A
:1012A00020E030E04AEF54E40E941F02DC01CB0151
:1012B0008F839887A987BA876F81788589859A8572
:1012C00020E030E040E85FE30E94790388232CF4BB
:1012D00081E090E09E838D833FC06F817885898512
:1012E0009A8520E03FEF4FE757E40E941903181654
:1012F0004CF56B857C858D859E8520E030E040E255
:1013000051E40E941F02DC01CB01BC01CD010E940F
:101310004900DC01CB019E838D830FC088EC90E0F7
:101320009C838B838B819C810197F1F79C838B83BA
:101330008D819E8101979E838D838D819E810097F3
:1013400069F714C06F81788589859A850E94490064
:10135000DC01CB019E838D838D819E819A8389835D
:1013600089819A810197F1F79A8389832E960FB626
:10137000F894DEBF0FBECDBFCF91DF910895DF930C
:10138000CF93CDB7DEB728970FB6F894DEBF0FBE68
:10139000CDBF8A836B834C8319828B81883008F0A0
:1013A000F4C08C81813009F072C08A81282F30E02E
:1013B00038872F838F8198858130910549F12F815E
:1013C0003885223031052CF48F819885009761F0A3
:1013D0005BC02F8138852230310571F18F8198856E
:1013E00083309105E9F150C0ABE3B0E0EBE3F0E00E
:1013F0008081482F8B81282F30E081E090E0022E01
:1014000002C0880F991F0A94E2F7842B8C93BFC007
:10141000A8E3B0E0E8E3F0E08081482F8B81282F3B
:1014200030E081E090E0022E02C0880F991F0A94FC
:10143000E2F7842B8C93ABC0A5E3B0E0E5E3F0E0EA
:101440008081482F8B81282F30E081E090E0022EB0
:1014500002C0880F991F0A94E2F7842B8C9397C0DF
:10146000A2E3B0E0E2E3F0E08081482F8B81282FF7
:1014700030E081E090E0022E02C0880F991F0A94AC
:10148000E2F7842B8C9383C081E0898380C08C81B8
:10149000882309F077C08A81282F30E03E832D838E
:1014A0008D819E818130910559F12D813E812230BF
:1014B00031052CF48D819E81009769F060C02D81EB
:1014C0003E812230310589F18D819E8183309105E5
:1014D00009F440C054C0ABE3B0E0EBE3F0E080813E
:1014E000482F8B81282F30E081E090E0022E02C04F
:1014F000880F991F0A94E2F7809584238C9347C044
:10150000A8E3B0E0E8E3F0E08081482F8B81282F4A
:1015100030E081E090E0022E02C0880F991F0A940B
:10152000E2F7809584238C9332C0A5E3B0E0E5E335
:10153000F0E08081482F8B81282F30E081E090E01F
:10154000022E02C0880F991F0A94E2F78095842327
:101550008C931DC0A2E3B0E0E2E3F0E08081482F6D
:101560008B81282F30E081E090E0022E02C0880FAE
:10157000991F0A94E2F7809584238C9308C081E038
:10158000898305C081E0898302C081E089838981E4
:1015900028960FB6F894DEBF0FBECDBFCF91DF9176
:1015A0000895DF93CF9300D000D00F92CDB7DEB770
:1015B0008A836B8319828A81282F30E03D832C83B4
:1015C0008C819D8181309105D1F02C813D8122302B
:1015D00031052CF48C819D81009761F01FC02C8116
:1015E0003D812230310581F08C819D8183309105D0
:1015F00081F014C0EBE3F0E08B81808311C0E8E35D
:10160000F0E08B8180830CC0E5E3F0E08B81808388
:1016100007C0E2E3F0E08B81808302C081E0898330
:1016200089810F900F900F900F900F90CF91DF91C5
:101630000895DF93CF93CDB7DEB727970FB6F89411
:10164000DEBF0FBECDBF8A836B835D834C8319825F
:101650008C819D81009709F478C08B81883008F0D7
:1016600074C08A81282F30E03F832E834E815F81B2
:101670004130510559F18E819F818230910534F4BA
:101680002E813F812115310569F05CC04E815F815B
:101690004230510579F18E819F818330910509F4A3
:1016A0003DC050C0E9E3F0E08081282F30E08B811D
:1016B000882F90E0A90102C0559547958A95E2F7D9
:1016C000CA018170EC81FD81808341C0E6E3F0E0D6
:1016D0008081282F30E08B81882F90E0A90102C003
:1016E000559547958A95E2F7CA018170EC81FD8195
:1016F00080832DC0E3E3F0E08081282F30E08B81F0
:10170000882F90E0A90102C0559547958A95E2F788
:10171000CA018170EC81FD81808319C0E0E3F0E0B3
:101720008081282F30E08B81882F90E0A90102C0B2
:10173000559547958A95E2F7CA018170EC81FD8144
:10174000808305C081E0898302C081E0898389812B
:1017500027960FB6F894DEBF0FBECDBFCF91DF91B5
:101760000895DF93CF93CDB7DEB7EAE3F0E081E0F1
:101770008083E7E3F0E01082E4E3F0E01082E1E34D
:10178000F0E082E08083EBE3F0E01082E8E3F0E059
:101790001082E5E3F0E01082E2E3F0E01082CF9106
:1017A000DF910895DF93CF930F92CDB7DEB70E94FC
:1017B000B10B0E94F80B198281E30E94650C8981AC
:1017C000813331F480E060E041E00E94BF0908C04D
:1017D0008981823329F480E060E040E00E94BF0903
:1017E000FFCFDF93CF93CDB7DEB7CF91DF910895D1
:1017F000DF93CF9300D00F92CDB7DEB71B8283E388
:1018000090E09A838983E0E4F0E089819A81892FCE
:1018100099278083E9E2F0E089818083ABE2B0E040
:10182000EBE2F0E080818D7F8C93ABE2B0E0EBE205
:10183000F0E080818E7F8C938B818F7B8B838B817B
:101840008F7E8B838B818F7D8B838B81877F8B8337
:101850008B8182608B838B8184608B83AAE2B0E072
:10186000EAE2F0E080818B7F8C938B8180688B83B0
:10187000E0E4F0E08B818083AAE2B0E0EAE2F0E00D
:1018800080818F778C93AAE2B0E0EAE2F0E0808179
:101890008F7B8C93AAE2B0E0EAE2F0E080818F7D5A
:1018A0008C93AAE2B0E0EAE2F0E0808180618C9360
:1018B000AAE2B0E0EAE2F0E0808188608C930F90C9
:1018C0000F900F90CF91DF910895DF93CF9300D0C9
:1018D00000D000D0CDB7DEB78E8385E08D8319822E
:1018E0001A821B821C82809176008823E9F581E0B0
:1018F000809376000BC089819A81AB81BC8101966F
:10190000A11DB11D89839A83AB83BC83EBE2F0E018
:101910008081829586958770882F90E08170907085
:10192000009761F489819A81AB81BC81803127E283
:10193000920720E0A20720E0B207E9F689819A81A8
:10194000AB81BC81803127E2920720E0A20720E032
:10195000B20719F484E08D8304C0ECE2F0E08E81DC
:1019600080831092760002C083E08D838D8126965D
:101970000FB6F894DEBF0FBECDBFCF91DF910895B3
:10198000DF93CF93CDB7DEB727970FB6F894DEBFBE
:101990000FBECDBF9F838E8319821A821B821C8249
:1019A0008E819F81009709F43FC080917600882343
:1019B000C1F581E0809376000BC089819A81AB816B
:1019C000BC810196A11DB11D89839A83AB83BC8321
:1019D000EBE2F0E08081882364F089819A81AB8119
:1019E000BC81803127E2920720E0A20720E0B20705
:1019F00021F789819A81AB81BC81803127E29207EE
:101A000020E0A20720E0B20719F484E08D8306C02D
:101A1000ECE2F0E08081EE81FF818083109276001D
:101A200005C083E08D8302C082E08D838D8127967F
:101A30000FB6F894DEBF0FBECDBFCF91DF910895F2
:101A4000DF93CF93CDB7DEB728970FB6F894DEBFFC
:101A50000FBECDBF9F838E8385E08D8319821A824E
:101A60001B821C828E819F81009741F11CC02981BD
:101A70003A818E819F81FC01E20FF31F80810E94D9
:101A8000650C8D8389819A81AB81BC810196A11DF2
:101A9000B11D89839A83AB83BC838D81853019F016
:101AA0008D8188870FC029813A818E819F81FC01B9
:101AB000E20FF31F80818823D1F602C082E08D837C
:101AC0008D818887888528960FB6F894DEBF0FBE73
:101AD000CDBFCF91DF910895DF93CF9300D000D099
:101AE0000F92CDB7DEB79B838A837D836C8385E0BD
:101AF000898380917600882399F58A819B8100975C
:101B000061F18C819D81009741F181E080937600A5
:101B10008A819B8190937100809370008C819D815C
:101B2000909375008093740010927800ACE2B0E05E
:101B3000209170003091710080917800882F90E0A2
:101B4000F901E80FF91F80818C93AAE2B0E0EAE284
:101B5000F0E0808180648C9305C082E0898302C0BC
:101B600083E0898389810F900F900F900F900F90E1
:101B7000CF91DF910895DF93CF93CDB7DEB72C9748
:101B80000FB6F894DEBF0FBECDBF9F838E8348870C
:101B900059876A877B8785E08D8319821A821B8229
:101BA0001C828E819F81009749F11AC029813A8158
:101BB0008E819F81820F931F0E94C00C8D8389812B
:101BC0009A81AB81BC810196A11DB11D89839A8345
:101BD000AB83BC838D81853019F08D818C8712C0D9
:101BE00029813A814B815C8188859985AA85BB854D
:101BF000281739074A075B07C8F202C082E08D83C5
:101C00008D818C878C852C960FB6F894DEBF0FBE25
:101C1000CDBFCF91DF910895DF93CF93CDB7DEB7DE
:101C200029970FB6F894DEBF0FBECDBF9B838A8382
:101C30004C835D836E837F833987288785E0898322
:101C400080917600882339F58A819B81009701F184
:101C5000888599850097E1F081E0809376008A81FC
:101C60009B819093730080937200888599859093EF
:101C70007500809374008C818093770010927800B7
:101C8000AAE2B0E0EAE2F0E0808180688C9305C0CF
:101C900082E0898302C083E08983898129960FB617
:101CA000F894DEBF0FBECDBFCF91DF9108951F9294
:101CB0000F920FB60F9211242F933F934F935F9380
:101CC0006F937F938F939F93AF93BF93EF93FF9304
:101CD000DF93CF93CDB7DEB72091720030917300C0
:101CE00080917800882F90E0D901A80FB91FECE20D
:101CF000F0E080818C93809178008F5F80937800F2
:101D00009091780080917700981781F41092780074
:101D100010927600E0917400F09175000995AAE2A6
:101D2000B0E0EAE2F0E080818F778C93CF91DF9191
:101D3000FF91EF91BF91AF919F918F917F916F91A3
:101D40005F914F913F912F910F900FBE0F901F9079
:101D500018951F920F920FB60F9211242F933F9355
:101D60004F935F936F937F938F939F93AF93BF93A3
:101D7000EF93FF93DF93CF93CDB7DEB780917800D9
:101D80008F5F809378002091700030917100809176
:101D90007800882F90E0F901E80FF91F80818823EF
:101DA00089F41092780010927600E0917400F0911E
:101DB00075000995AAE2B0E0EAE2F0E080818F7B4D
:101DC0008C930FC0ACE2B0E02091700030917100B4
:101DD00080917800882F90E0F901E80FF91F808149
:101DE0008C93CF91DF91FF91EF91BF91AF919F9134
:101DF0008F917F916F915F914F913F912F910F90B4
:101E00000FBE0F901F901895A1E21A2EAA1BBB1BA4
:101E1000FD010DC0AA1FBB1FEE1FFF1FA217B307B6
:101E2000E407F50720F0A21BB30BE40BF50B661FCC
:101E3000771F881F991F1A9469F760957095809590
:101E400090959B01AC01BD01CF0108952F923F9267
:101E50004F925F926F927F928F929F92AF92BF92BA
:101E6000CF92DF92EF92FF920F931F93CF93DF9366
:101E7000CDB7DEB7CA1BDB0B0FB6F894DEBF0FBEC3
:101E8000CDBF09942A88398848885F846E847D8410
:101E90008C849B84AA84B984C884DF80EE80FD8012
:101EA0000C811B81AA81B981CE0FD11D0FB6F89488
:0E1EB000DEBF0FBECDBFED010895F894FFCF49
:101EBE0000000000000000006D6F68616D65640039
:00000001FF
